:020000040000FA
:06000000C2EF95F01200B2
:020006001200E6
:06000800A9EF93F01200C5
:02000E00C250DE
:08001000020B01E0010E1200D9
:0600180045EF93F0120019
:02001E001000D0
:10002000092C01005C08000001000000082C010000
:100030005B08000001000000062C010054080000CD
:1000400002000000052C01005A0800000100000019
:10005000012C01004208000004000000FF2B0100F9
:100060005208000002000000FB2B01003E080000C7
:1000700004000000E32B0100D4070000180000007A
:10008000E22B01005908000001000000DF2B0100F5
:100090004908000003000000DB2B01003A080000C3
:1000A00004000000D72B0100360800000400000007
:1000B000D62B01005808000001000000D42B0100DD
:1000C0005008000002000000D02B010032080000A0
:1000D00004000000CE2B01004E08000002000000CA
:1000E000D9CFE6FFE1CFD9FFFE0EDB500801505D0E
:1000F00001E141D0FE0E505D1BE01C0EE66EE66A8B
:10010000D60EE66E060EE66E50511C0DF3CF00F0D3
:10011000F4CF01F0690E0026070E012200C0E6FFB1
:1001200001C0E6FF43EC8EF0026E060EE15E025067
:10013000FE0EDBCF50F8DB50FE0801E11CD01C0E98
:10014000E66EE66AFE0EDB501C0DF3CF00F0F4CF36
:1001500001F0690E0026070E012200C0E6FF01C073
:10016000E6FFD60EE66E060EE66E43EC8EF0026EED
:10017000060EE15E0250E552E7CFD9FF12000801FA
:100180005051515D01E156D0FE0E515D35E0270E14
:10019000E66EE66A010EE66EAF0EE66E060EE66EDF
:1001A00051511C0DF3CFE9FFF4CFEAFF690EE926A8
:1001B000070EEA221B0EE926000EEA22EF50E66E39
:1001C00051511C0DF3CFE9FFF4CFEAFF690EE92688
:1001D000070EEA22EECF00F0EFCF01F0270E005E0F
:1001E000000E015A00C0E6FF01C0E6FF17EC2DF03B
:1001F000026E080EE15E025050C851F8270EE66EFE
:10020000E66AF1C6E6FFD6C600F0D7C601F0005E8A
:10021000000E015A00C0E6FF01C0E6FF010EE66EC7
:10022000AF0EE66E060EE66E17EC2DF0026E080EAF
:10023000E15E02501200D9CFE6FFE1CFD9FF0B0EED
:10024000E126C00EF36E090EF3CFDBFF100EF36E46
:100250000A0EF3CFDBFF0601AD51AE110FE1C9EC81
:100260005BF024C0ADF625C0AEF6FF0E0601AD175B
:10027000070EAE17000EAD27040EAE233C0EE66E41
:10028000E66AE66A000EE66E0F0EE66E91EC8EF000
:10029000006E050EE15E0050010EDB6ADF6ADF5082
:1002A000006E016A020E005C000E015801E33ED1AF
:1002B000DFCFE6FF15DFE552BE0E006E2B0E016E9E
:1002C000010E026EDFCF03F0046A056A060E2A6E85
:1002D0002B6A2C6A03C025F004C026F005C027F065
:1002E0006DEC76F022C003F023C004F024C005F0CA
:1002F00000500324F36E01500420F46E02500520D8
:10030000F86EF4CFF7FFF3CFF6FFF62A000EF722D0
:10031000F8220800080EF5CFDBFFBE0E006E2B0E94
:10032000016E010E026EDFCF03F0046A056A060E4D
:100330002A6E2B6A2C6A03C025F004C026F005C083
:1003400027F06DEC76F022C003F023C004F024C047
:1003500005F000500324F36E01500420F46E0250A7
:100360000520F86EF4CFF7FFF3CFF6FF020EF62666
:10037000000EF722F8220900020EF5CFDBFF0A007B
:10038000030EF5CFDBFFBE0E006E2B0E016E010ECD
:10039000026EDFCF03F0046A056A060E2A6E2B6A2E
:1003A0002C6A03C025F004C026F005C027F06DECD0
:1003B00076F022C003F023C004F024C005F0005002
:1003C0000324F36E01500420F46E02500520F86EF1
:1003D000F4CFF7FFF3CFF6FF040EF626000EF72258
:1003E000F8220900040EF5CFDBFF0A00050EF5CF59
:1003F000DBFF080EDB5001E098D0090EDBCF26F0C2
:100400000A0EDBCF27F0060E26C0DBFF070E27C043
:10041000DBFF020EDBCF02F0030EDBCF03F0270E73
:100420000226000E0322010E0226000E0322040EF5
:10043000DB500224006E050EDB500320016E010E1E
:100440000026000E0122D950090FE96EDACFEAFF2B
:100450000050EE260150ED22090EDBCF00F00A0E0F
:10046000DBCF01F0026A036AD880FC0E00541F0E35
:100470000154000E0254000E035401E2EDD7080EA1
:10048000DBCFF1F6060EDBCFD6F6070EDBCFD7F6C5
:10049000270E0601D627000ED723020EDB50D625E5
:1004A000D86F030EDB50D721D96F010ED827000E6D
:1004B000D923040EDB50D825DA6F050EDB50D92185
:1004C000DB6F0D0EEC6FED975ADEBE0E006E2B0E3D
:1004D000016E010E026EDFCF03F0046A056A060E9C
:1004E0002A6E2B6A2C6A03C025F004C026F005C0D2
:1004F00027F06DEC76F022C003F023C004F024C096
:1005000005F000500324F36E01500420F46E0250F5
:100510000520F86EF4CFF7FFF3CFF6FF0800F5CF14
:10052000D5F67CEC20F0DF2ABAD6FFD70B0EE15CC3
:1005300002E2E16AE552E16EE552E7CFD9FF12002F
:10054000D9CFE6FFE1CFD9FFE652DF6ADF50006E78
:10055000016A020E005C000E015801E3D1D0DFCF2A
:10056000E6FFBEDDE5520D0E0601EC5D01E0C6D0F2
:1005700006DEF70EDB500601D55D01E0BFD0180E98
:10058000D26F020ED36FFA0EDB5010E1F80EDBCF04
:10059000BFF6F90EDBCFC0F6ED87040EEC6FF80E58
:1005A000DBCFEFF6F90EDBCFF0F6A6D0000EAD5D97
:1005B000040EAE5906E3880ED880AD55130EAE5525
:1005C00003E2AD6B040EAE6FADC6BFF6AEC6C0F6AD
:1005D000AD2B000EAE23F80EDBCFBDF6F90EDBCF50
:1005E000BEF66FEC90F024C0E4F625C0E5F626C018
:1005F000E6F627C0E7F60601ED89FA0EDB50040A9D
:1006000034E0070A01E078D0FB0EDBCF04F0FC0EEB
:10061000DBCF05F0FD0EDB500424026EFE0EDB5036
:100620000520036EF80EDB500224006EF90EDB503D
:100630000320016E0050BF19EF6F0150C019F06F19
:10064000FB0EDBCFC5F6FC0EDBCFC6F6FD0EDBCF17
:10065000C7F6FE0EDBCFC8F6D46B270EAF6FB06BBC
:10066000B16BB26B020EEC6F47D0FB0EDBCFE9FF34
:10067000FC0EDBCFEAFF020EE926000EEA22EECFE7
:1006800004F0EFCF05F0FB0EDBCFE9FFFC0EDBCF74
:10069000EAFF0450EE24026E0550EE20036EF80EC1
:1006A000DB500224006EF90EDB500320016E005077
:1006B000BF19EF6F0150C019F06F0A0EE66EE66ABF
:1006C000FB0EDBCFE6FFFC0EDBCFE6FFC50EE66ED2
:1006D000060EE66E43EC8EF0006E060EE15E0050F4
:1006E0000601050EEC6F010EE66E020EE66E6AEC78
:1006F00018F0E552E55200D0DF5004D0DF2A26D7AB
:10070000FE0E00D0E552E552E7CFD9FF1200D9CF57
:10071000E6FFE1CFD9FFFE0EDB50006E016A020E4C
:10072000005C000E015802E3010E0DD0FE0EDBCF7F
:10073000E6FFD6DCE5520601EEA903D0EE99010EE4
:1007400002D0000E00D0E552E7CFD9FF1200D9CF7A
:10075000E6FFE1CFD9FFFE0EDB50006E016A020E0C
:10076000005C000E015802E3000E0DD0FE0EDBCF40
:10077000E6FFB6DCE552070E0601EC5D02E0000E76
:1007800001D0010E00D0E552E7CFD9FF1200D9CF3A
:10079000E6FFE1CFD9FFFE0EDB50006E016A020ECC
:1007A000005C000E015801E35ED0FE0EDBCFE6FFD9
:1007B00097DCE552E0C6E2F6E1C6E3F60601EC514D
:1007C000080A47E0010A45E0050A43E0020A3EE064
:1007D000050A26E00D0A0EE0010A0CE0070A07E010
:1007E000020A05E0010A03E0060A01E032D07CECCF
:1007F00020F039D0010EE66E110EE66E6AEC18F0AC
:10080000E552E5520601C151C21101E106D0BB51CA
:10081000DC1902E1BC51DD19EDE1080EEC6F23D0CB
:10082000010EE66E110EE66E6AEC18F0E552E55226
:100830000601C151C21101E106D0BB51DC1902E130
:10084000BC51DD19EDE10C0EEC6F0DD00D0EEC6F0F
:100850000AD0E66A140EE66E6AEC18F0E552E5522C
:100860007CEC20F000D0E552E7CFD9FF1200D9CFC1
:10087000E6FFE1CFD9FFFE0EDB50006E016A020EEB
:10088000005C000E015801E30CD0FE0EDBCFE6FF4A
:1008900027DCE5520601ED97FE0EDBCFE6FF77DFA2
:1008A000E552E552E7CFD9FF1200D9CFE6FFE1CFFD
:1008B000D9FFFE0EDB50006E016A020E005C000ED6
:1008C000015803E3F36AF46A24D0FE0EDBCFE6FF9F
:1008D00007DCE55254DC0A0EE66EE66AC50EE66EEB
:1008E000060EE66EF20EE66E060EE66E43EC8EF037
:1008F000006E060EE15E0050BDC6FCF6BEC6FDF6FB
:10090000F20E006E060E016E00C0F3FF01C0F4FF90
:1009100000D0E552E7CFD9FF1200D9CFE6FFE1CFF3
:10092000D9FFFE0EDB50006E016A020E005C000E65
:10093000015801E316D0FE0EDBCFE6FF70EC00F0AD
:10094000E5521DDC0601BB51DC1902E1BC51DD1989
:1009500008E0010EE66E100EE66E6AEC18F0E55245
:10096000E552E552E7CFD9FF1200D9CFE6FFE1CF3C
:10097000D9FFE652FE0EDB50006E016A020E005CEB
:10098000000E015803E3F36AF46A40D0FE0EDBCF99
:10099000E6FF70EC00F0E552ECC6DFFF070EDF5C0F
:1009A00006E00B0EDF5C03E0F36AF46A2FD0060169
:1009B000DE51DC5DDF51DD591BE3D651D85D026E9F
:1009C000D951D755036E0206000E035ADE51DC5D85
:1009D000046EDD51DF55056E0450025C006E05505B
:1009E0000358016E00C0F3FF01C0F4FF0FD00ED01A
:1009F000DC51DE5D006EDF51DD55016E0006000E3C
:100A0000015A00C0F3FF01C0F4FF00D0E552E552E7
:100A1000E7CFD9FF1200D9CFE6FFE1CFD9FF020E11
:100A2000E126FE0EDB50006E016A020E005C000E35
:100A3000015802E3000E8DD0FE0EDBCFE6FF70EC16
:100A400000F0E552FE0EDBCFE6FF8FDFE552F3CF7D
:100A5000DEFFF4CFDDFFD9CFE9FFDACFEAFFEE50BA
:100A6000ED1003E1000E75D00ED0D9CFE9FFDACF3B
:100A7000EAFF010EEE1801E1ED5005E1FE0EDBCFBD
:100A8000E6FF4BDFE5520601EE51010B19E1DECF27
:100A900000F0DDCF01F0D651D85D026ED951D755A7
:100AA000036ED890033202320050025C01500358AA
:100AB00007E3FE0EDBCFE6FF30DFE5520601EE81F5
:100AC000010EE66EE66AE66ED950FD0FE66EFF0E89
:100AD000DA20E66EF1C6E6FFDCC6E6FFDDC6E6FF1D
:100AE00017EC2DF0006E080EE15E00500601DC2BC5
:100AF000000EDD23D851DC5DD951DD5904E3D6C6A3
:100B0000DCF6D7C6DDF6D9CFE9FFDACFEAFF010E72
:100B1000EE1801E1ED5006E1FE0EDBCFE6FFFDDE53
:100B2000E55215D0EDBB13D0ED8B7AEC90F024C0DC
:100B300000F025C001F0026A036A060E0026000ECE
:100B400001220222032200C0E8F601C0E9F6010EEC
:100B500000D0006E020EE15C02E2E16AE552E16E55
:100B60000050E552E7CFD9FF1200D9CFE6FFE1CF21
:100B7000D9FF060EE126040EDB6A050EDB6AFE0EC7
:100B8000DB50006E016A020E005C000E015803E3A8
:100B9000F36AF46A0FD1FE0EDBCFE6FF70EC00F0D3
:100BA000E552FE0EDBCFE6FFE0DEE552020EF3CFAC
:100BB000DBFF030EF4CFDBFFD950020FE96EDACF73
:100BC000EAFFEE50ED1008E1FE0EDBCFE6FFA5DEFA
:100BD000E552F36AF46AEED0020EDBCFDEFFDBCF24
:100BE000DDFFDBCF00F0030EDBCF01F0FA0EDBCF31
:100BF00002F0FB0EDBCF03F00050025C0150035803
:100C000005E2FA0EDBCFDEFFDBCFDDFF0601EE51A2
:100C1000010B1BE1020EDBCF00F0030EDBCF01F076
:100C2000D651D85D026ED951D755036ED890033294
:100C300002320050025C0150035807E3FE0EDBCF86
:100C4000E6FF6BDEE5520601EE81DE50DC25000199
:100C5000006EDD500601DD210001016E0601D85154
:100C6000005CD951015848E3DC51D85D006ED95180
:100C7000DD55016E040E00C0DBFF050E01C0DBFF79
:100C8000040EDBCFE6FF050EDBCFE6FF010EE66EBE
:100C9000FC0EDBCFE6FFFD0EDBCFE6FFF1C6E6FF85
:100CA000DCC6E6FFDDC6E6FF17EC2DF0006E080E91
:100CB000E15E0050040EDBCF00F0050EDBCF01F04B
:100CC000D950FC0FE96EFF0EDA20EA6E0050EE26D6
:100CD0000150ED22040EDBCF00F0050EDBCF01F05A
:100CE000D9CFE9FFDACFEAFF0050EE5E0150ED5AAE
:100CF000D6C6DCF6D7C6DDF6DECFE6FFDDCFE6FFF3
:100D0000010EE66EFC0EDBCFE6FFFD0EDBCFE6FF4D
:100D1000F1C6E6FFDCC6E6FFDDC6E6FF17EC2DF008
:100D2000006E080EE15E0050D9CFE9FFDACFEAFF8E
:100D3000EE500601DC27EE50DD23020EDBCF00F083
:100D4000030EDBCF01F0FA0EDBCF02F0FB0EDBCFA0
:100D500003F00050025C0150035806E3FE0EDBCFA7
:100D6000E6FFDBDDE55215D0EDBB13D0ED8B7AEC61
:100D700090F024C000F025C001F0026A036A060E5C
:100D80000026000E01220222032200C0E8F601C064
:100D9000E9F6040EDBCF02F0050EDBCF03F0DE50E8
:100DA0000224006EDD500320016E00C0F3FF01C07D
:100DB000F4FF00D0060EE15C02E2E16AE552E16E6A
:100DC000E552E7CFD9FF1200D9CFE6FFE1CFD9FF37
:100DD000060EE126040EDB6A050EDB6AFE0EDB5012
:100DE000006E016A020E005C000E015803E3F36A14
:100DF000F46A14D1FE0EDBCFE6FF70EC00F0E55292
:100E0000FE0EDBCFE6FFB1DDE552020EF3CFDBFFD6
:100E1000030EF4CFDBFFD950020FE96EDACFEAFF01
:100E2000EE50ED1008E1FE0EDBCFE6FF76DDE55279
:100E3000F36AF46AF3D00601EE51010B1BE1020ED6
:100E4000DBCF00F0030EDBCF01F0D651D85D026E90
:100E5000D951D755036ED890033202320050025C4C
:100E60000150035807E3FE0EDBCFE6FF56DDE552E7
:100E70000601EE81020EDBCFDEFFDBCFDDFFDBCF35
:100E800000F0030EDBCF01F0F90EDBCF02F0FA0E1B
:100E9000DBCF03F00050025C0150035805E2F90E6D
:100EA000DBCFDEFFDBCFDDFFDE50DC250001006E97
:100EB000DD500601DD210001016E0601D851005C04
:100EC000D95101584CE3DC51D85D006ED951DD5544
:100ED000016E040E00C0DBFF050E01C0DBFF040E37
:100EE000DBCFE6FF050EDBCFE6FFFB0EDBCFE6FF39
:100EF000FC0EDBCFE6FFFD0EDBCFE6FFF1C6E6FF23
:100F0000DCC6E6FFDDC6E6FFBCEC2DF0006E080E89
:100F1000E15E0050040EDBCF00F0050EDBCF01F0E8
:100F2000026AD950FB0FE96EFF0EDA20EA6E00501C
:100F3000EE260150EE220250EE22040EDBCF00F02E
:100F4000050EDBCF01F0D9CFE9FFDACFEAFF005081
:100F5000EE5E0150ED5AD6C6DCF6D7C6DDF6DECF22
:100F6000E6FFDDCFE6FFFB0EDBCFE6FFFC0EDBCFBF
:100F7000E6FFFD0EDBCFE6FFF1C6E6FFDCC6E6FFCF
:100F8000DDC6E6FFBCEC2DF0006E080EE15E005001
:100F9000D9CFE9FFDACFEAFFEE500601DC27EE50A9
:100FA000DD23020EDBCF00F0030EDBCF01F0F90EE4
:100FB000DBCF02F0FA0EDBCF03F00050025C0150F1
:100FC000035806E3FE0EDBCFE6FFA7DCE55215D0A3
:100FD000EDBB13D0ED8B7AEC90F024C000F025C06F
:100FE00001F0026A036A060E0026000E01220222A8
:100FF000032200C0E8F601C0E9F6040EDBCF02F0E0
:10100000050EDBCF03F0DE500224006EDD5003201E
:10101000016E00C0F3FF01C0F4FF00D0060EE15CDA
:1010200002E2E16AE552E16EE552E7CFD9FF120034
:10103000D9CFE6FFE1CFD9FFFC0EDBCF02F0FD0EEA
:10104000DBCF03F002C0E6FF03C0E6FFFC0EDBCF00
:10105000E6FFFD0EDBCFE6FFABEC8EF0E552E5528E
:10106000F3CF04F0F4CF05F004C0E6FF05C0E6FFBF
:10107000FC0EDBCFE6FFFD0EDBCFE6FFFE0EDBCF87
:10108000E6FF73DD066E050EE15E0650E552E7CF22
:1010900003F0E552E7CF02F00250F324006E035054
:1010A000F420016E00C0F3FF01C0F4FF00D0E55250
:1010B000E7CFD9FF1200D9CFE6FFE1CFD9FFFB0E72
:1010C000DBCFE6FFFC0EDBCFE6FFFD0EDBCFE6FF5E
:1010D000B9EC8EF0E552E552E55225C006F026C087
:1010E00007F006C0E6FF07C0E6FFFB0EDBCFE6FF1A
:1010F000FC0EDBCFE6FFFD0EDBCFE6FFFE0EDBCF07
:10110000E6FF62DE086E060EE15E0850F3CF03F0E4
:10111000F4CF04F0056AD950FB0FE96EFF0EDA2018
:10112000EA6EEE500324006EEE500420016EEE5085
:101130000520026E00C025F001C026F002C027F095
:1011400000D0E552E7CFD9FF1200D9CFE6FFE1CFBB
:10115000D9FF040EE126FE0EDB50006E016A020E7E
:10116000005C000E015803E3F36AF46A31D0FE0E0E
:10117000DBCFE6FF70EC00F0E5520601D651D85DFA
:10118000006ED951D755016E0006000E015A020EAD
:1011900000C0DBFF030E01C0DBFFFE0EDBCFE6FF6E
:1011A000B5EC04F0E552F3CFDEFFF4CFDDFF020E25
:1011B000DBCF02F0030EDBCF03F0DE50025C006EEB
:1011C000DD500358016E00C0F3FF01C0F4FF00D0F2
:1011D000040EE15C02E2E16AE552E16EE552E7CF1E
:1011E000D9FF1200D9CFE6FFE1CFD9FFFE0EDBCF4A
:1011F000E6FF1ED8E552F3CF00F0F4CF01F0005027
:10120000011012E0FE0EDBCFE6FF70EC00F0E552BD
:10121000E0C6E2F6E1C6E3F6010EE66E100EE66EFB
:101220006AEC18F0E552E552E552E7CFD9FF12001B
:10123000D9CFE6FFE1CFD9FFFE0EDB50006E016A89
:10124000020E005C000E015803E3F36AF46A33D027
:10125000FE0EDBCFE6FF70EC00F0E5520601E25136
:10126000E05DE351E1590CE3E251E05D006EE151D4
:10127000E355016E00C0F3FF01C0F4FF1CD01BD08A
:10128000E251DA5D026EDB51E355036E010E022678
:10129000000E0322D851E05D046EE151D955056E70
:1012A00002500424006E03500520016E00C0F3FFBD
:1012B00001C0F4FF00D0E552E7CFD9FF1200D9CF2B
:1012C000E6FFE1CFD9FF020EE126FE0EDBCFE6FFFF
:1012D000AFDFE552F3CFDEFFF4CFDDFFD9CFE9FF7B
:1012E000DACFEAFFEE50ED1002E1000E54D0FE0E10
:1012F000DBCFE6FF70EC00F0E552D950FC0FE96E51
:10130000FF0EDA20EA6EEE50ED1016E0010EE66EEA
:10131000E66AF1C6E6FFE2C6E6FFE3C6E6FFE66E72
:10132000FC0EDBCFE6FFFD0EDBCFE6FF17EC2DF06A
:10133000006E080EE15E00500601E22B000EE32372
:10134000E251DA5DE351DB5904E2D8C6E2F6D9C6D0
:10135000E3F6D9CFE9FFDACFEAFF010EEE1801E19B
:10136000ED5002E1EE8515D0EDBB13D0ED8B7AEC9C
:1013700090F024C000F025C001F0026A036A1F0E3D
:101380000026000E01220222032200C0E8F601C05E
:10139000E9F6010E00D0006E020EE15C02E2E16AA5
:1013A000E552E16E0050E552E7CFD9FF1200D9CFE8
:1013B000E6FFE1CFD9FF040EE126020EDB6A030E41
:1013C000DB6AFE0EDBCFE6FF33DFE552F3CFDEFF55
:1013D000F4CFDDFFD9CFE9FFDACFEAFFEE50ED1011
:1013E00003E1F36AF46AFFD0FE0EDBCFE6FF70EC98
:1013F00000F0E552FA0EDBCF00F0FB0EDBCF01F080
:10140000DECF02F0DDCF03F00050025C0150035844
:101410000AE2D9CFE9FFDACFEAFFFA0EEECFDBFF1F
:10142000FB0EEDCFDBFFFA0EDB500601E2250001DB
:10143000006EFB0EDB500601E3210001016E060188
:101440000050DA5D0150DB5957E2E251DA5D006E7F
:10145000DB51E355016E010E0026000E0122020E43
:1014600000C0DBFF030E01C0DBFFD950FC0FE96EAB
:10147000FF0EDA20EA6EEE50ED102AE0020EDBCF0E
:10148000E6FF030EDBCFE6FFF1C6E6FFE2C6E6FFAE
:10149000E3C6E6FF010EE66EFC0EDBCFE6FFFD0EB7
:1014A000DBCFE6FF17EC2DF0006E080EE15E00507A
:1014B000020EDBCF00F0030EDBCF01F0D950FC0FA2
:1014C000E96EFF0EDA20EA6E0050EE260150ED22A2
:1014D000020EDBCF00F0030EDBCF01F0D950FA0F84
:1014E000E96EFF0EDA20EA6E0050EE5E0150ED5A12
:1014F000D8C6E2F6D9C6E3F6D950FC0FE96EFF0E66
:10150000DA20EA6EEE50ED101AE0FA0EDBCFE6FFBD
:10151000FB0EDBCFE6FFF1C6E6FFE2C6E6FFE3C661
:10152000E6FF010EE66EFC0EDBCFE6FFFD0EDBCF25
:10153000E6FF17EC2DF0006E080EE15E0050FA0E8B
:10154000DBCF26F0FB0EDBCF27F026500601E2278B
:101550002750E323020EDBCF00F0030EDBCF01F0B8
:10156000D950FA0FE96EFF0EDA20EA6E0050EE262F
:101570000150ED22DECF02F0DDCF03F0FA0EDB509A
:10158000025C006EFB0EDB500358016EFA0EDBCFDF
:1015900004F0FB0EDBCF05F00050045C0150055851
:1015A00002E3EE8515D0EDBB13D0ED8B7AEC90F015
:1015B00024C000F025C001F0026A036A1F0E002655
:1015C000000E01220222032200C0E8F601C0E9F663
:1015D000FA0EDBCF00F0FB0EDBCF01F000C0F3FF13
:1015E00001C0F4FF00D0040EE15C02E2E16AE552C2
:1015F000E16EE552E7CFD9FF1200D9CFE6FFE1CF88
:10160000D9FF040EE126FE0EDB50006E016A020EC9
:10161000005C000E015803E3F36AF46A2DD0FE0E5D
:10162000DBCFE6FF70EC00F0E5520601D851DA5D41
:10163000006EDB51D955016E020E00C0DBFF030EB8
:1016400001C0DBFFFE0EDBCFE6FFF2DDE552F3CF9C
:10165000DEFFF4CFDDFF020EDBCF02F0030EDBCFA7
:1016600003F0DE50025C006EDD500358016E00C0D6
:10167000F3FF01C0F4FF00D0040EE15C02E2E16A76
:10168000E552E16EE552E7CFD9FF1200D9CFE6FF70
:10169000E1CFD9FF060EE126FE0EDB50006E016A97
:1016A000020E005C000E015809E2D950FA0FE96EF3
:1016B000FF0EDA20EA6EEE50ED1003E1F36AF46AF1
:1016C000FDD0FE0EDBCFE6FF70EC00F0E552FE0E23
:1016D000DBCFE6FFADDDE552020EF3CFDBFF030EFD
:1016E000F4CFDBFFFA0EDBCF02F0FB0EDBCF03F013
:1016F000F80EDB500224006EF90EDB500320016E61
:10170000020EDBCF04F0030EDBCF05F00050045CCB
:101710000150055814E2020EDBCF02F0030EDBCFBE
:1017200003F0F80EDB50025C006EF90EDB5003583C
:10173000016EFA0E00C0DBFFFB0E01C0DBFFF80EEE
:10174000DB500601E2250001006EF90EDB500601B8
:10175000E3210001016E00C0DEFF01C0DDFFDECF2E
:1017600000F0DDCF01F006010050DA5D0150DB59D9
:1017700012E2D851DA5D006EDB51D955016E010ECF
:101780000026000E0122D9CFE9FFDACFEAFF005090
:10179000EE5E0150ED5ADE50DA5D006EDD50DB5931
:1017A000016E010E0026000E0122040E00C0DBFFB8
:1017B000050E01C0DBFFFA0EDBCF00F0FB0EDBCF26
:1017C00001F0040EDBCF02F0050EDBCF03F000507A
:1017D000025C015003581BE3FA0EDBCFE6FFFB0E61
:1017E000DBCFE6FFF1C6E6FFDECFE6FFDDCFE6FFAB
:1017F000010EE66EFC0EDBCFE6FFFD0EDBCFE6FF53
:1018000017EC2DF0006E080EE15E00504CD0040E77
:10181000DBCFE6FF050EDBCFE6FFF1C6E6FFDECF4E
:10182000E6FFDDCFE6FF010EE66EFC0EDBCFE6FF46
:10183000FD0EDBCFE6FF17EC2DF0006E080EE15E2B
:101840000050FA0EDBCF02F0FB0EDBCF03F0040EEC
:10185000DB50025C006E050EDB500358016E00C0C9
:10186000E6FF01C0E6FFF1C6E6FFD8C6E6FFD9C62F
:10187000E6FF010EE66E040EDBCF06F0050EDBCFB1
:1018800007F0FC0EDB500624046EFD0EDB50072033
:10189000056E04C0E6FF05C0E6FF17EC2DF0086EEC
:1018A000080EE15E0850FA0EDBCF00F0FB0EDBCF36
:1018B00001F000C0F3FF01C0F4FF00D0060EE15CB0
:1018C00002E2E16AE552E16EE552E7CFD9FF12008C
:1018D000D9CFE6FFE1CFD9FFE652FC0EDBCFE6FF22
:1018E000FD0EDBCFE6FF010EE66EE66AD9CFE6FF1E
:1018F000DACFE6FFFE0EDBCFE6FFC8DE006E070E96
:10190000E15E0050DF5000D0E552E552E7CFD9FF4D
:101910001200D9CFE6FFE1CFD9FF300EE126FE0E4F
:10192000DB50006E016A020E005C000E015809E2F5
:10193000D950FA0FE96EFF0EDA20EA6EEE50ED1084
:1019400003E1F36AF46AF2D2FE0EDBCFE6FF70EC3D
:1019500000F0E552FE0EDBCFE6FF6ADCE552F3CF86
:1019600002F0F4CF03F0F80EDB50025C006EF90ECB
:10197000DB500358016E020E00C0DBFF030E01C0F6
:10198000DBFF020EDBCF00F0030EDBCF01F0FA0E1F
:10199000DBCF02F0FB0EDBCF03F00250005C035004
:1019A000015803E2F368F468C1D2D950F60FE96E2A
:1019B000FF0EDA20EA6EEE50ED101DE0020EDBCFD6
:1019C00000F0030EDBCF01F0F60EDBCF02F0F70ED6
:1019D000DBCF03F00050025C015003580CE2F60E1E
:1019E000DBCF26F0F70EDBCF27F0020E26C0DBFFA1
:1019F000030E27C0DBFFF80EDB500601E2250001D5
:101A0000006EF90EDB500601E3210001016E060EA7
:101A100000C0DBFF070E01C0DBFF060EDBCF00F0CE
:101A2000070EDBCF01F006010050DA5D0150DB59F3
:101A300013E2D851DA5D006EDB51D955016E010E0B
:101A40000026000E0122D950060FE96EDACFEAFF18
:101A50000050EE5E0150ED5A060EDBCFDEFFDBCF0D
:101A6000DDFFDB50DA5D0001006E070EDB50060182
:101A7000DB590001016E010E0026000E0122040E4A
:101A800000C0DBFF050E01C0DBFFF80EDBCF26F048
:101A9000F90EDBCF27F0060E26C0DBFF070E27C0AE
:101AA000DBFFFA0EDBCF26F0FB0EDBCF27F0080EB4
:101AB00026C0DBFF090E27C0DBFFFC0EDBCF26F0C4
:101AC000FD0EDBCF27F00A0E26C0DBFF0B0E27C072
:101AD000DBFFFC0EDBCFE9FFDB2AFD0EDBCFEAFFED
:101AE00001E3DB2A0D0EEFCFDBFF0F0EDB6AF50EF5
:101AF000DB5016E0610EF36E0D0EDBCFF4FFF350FA
:101B0000F45C0EE30D0EDB507A080AE3E00E006E83
:101B10000D0EDBCFE7FF0050E7260D0EE7CFDBFF12
:101B2000200EF36E0E0EF3CFDBFFDBCF00F0040EC2
:101B3000DBCF01F0050EDBCF02F00050015C000EA0
:101B4000025806E2040EDB50E76E0E0EE7CFDBFF15
:101B50000E0EDBCF00F0020EDBCF01F0030EDBCF69
:101B600002F00050015C000E025806E2020EDB504B
:101B7000E76E0E0EE7CFDBFF0E0EDBCFE6FFE66A69
:101B8000F1C6E6FFDECFE6FFDDCFE6FF010EE66E33
:101B9000D950100FE66E000EDA20E66E17EC2DF02D
:101BA000006E080EE15E00500E0EDB50DE26000EC9
:101BB000DD220E0EDB50006E016AD950040FE96E73
:101BC000DACFEAFF0050EE5E0150ED5AD950040F13
:101BD000E96EDACFEAFFEE50ED1008E1D8C6DEFF7D
:101BE000D9C6DDFF040EDB68050EDB68F50EDB50A1
:101BF00001E1E5D00C0EDB6A0E0EDB50F36E0C0E2D
:101C0000DBCFF4FFF350F45C01E3D8D0D950100FD0
:101C1000016EDACF02F00C0EDB500F010124E96EE9
:101C2000000E0220EA6EEFCF00F0610E005C1FE3B1
:101C3000D950100F036EDACF04F00C0EDB500324E2
:101C4000E96E000E0420EA6EEF507A0810E3E00E11
:101C5000026ED950100F006EDACF01F00C0EDB507F
:101C60000024E96E000E0120EA6E0250EF26D950E2
:101C7000100F006EDACF01F00C0EDB500024E96E7D
:101C8000000E0120EA6EEF50F36E0D0EDB50F35C98
:101C900053E1FA0EDB06DBCF00F0FB0E01E2DB06C0
:101CA000DBCF01F0005001101FE1060EDBCF04F086
:101CB000070EDBCF05F0080EDB50045C026E090E48
:101CC000DB500558036E0C0EDB5000010224006E41
:101CD000000E0320016E010E0026000E012200C03E
:101CE000F3FF01C0F4FF22D1FC0EDBCFE9FFDB2ABA
:101CF000FD0EDBCFEAFF01E3DB2A0D0EEFCFDBFFAA
:101D0000010EF36E0F0EF3CFDBFF610EF36E0D0EBF
:101D1000DBCFF4FFF350F45C0EE30D0EDB507A08DA
:101D20000AE3E00E006E0D0EDBCFE7FF0050E72662
:101D30000D0EE7CFDBFF3FD0080EDBCF26F0090EFC
:101D4000DBCF27F0FA0E26C0DBFFFB0E27C0DBFF40
:101D50000F0EDB5030E00A0EDBCF26F00B0EDBCF90
:101D600027F0FC0E26C0DBFFFD0E27C0DBFFFC0EBC
:101D7000DBCFE9FFDB2AFD0EDBCFEAFF01E3DB2A45
:101D80000D0EEFCFDBFF610EF36E0D0EDBCFF4FF18
:101D9000F350F45C0EE30D0EDB507A080AE3E00E1C
:101DA000006E0D0EDBCFE7FF0050E7260D0EE7CFEC
:101DB000DBFF0F0EDB6A0C0EDB2A1ED788D00C0E61
:101DC000DB6A0E0EDB50F36E0C0EDBCFF4FFF3502C
:101DD000F45C01E37CD0D950100F006EDACF01F033
:101DE0000C0EDB500F010024E96E000E0120EA6E9C
:101DF000EF50F36E0D0EDB50F35C3DE1FA0EDB06A7
:101E0000DBCF00F0FB0E01E2DB06DBCF01F0005080
:101E100001101FE1060EDBCF04F0070EDBCF05F04B
:101E2000080EDB50045C026E090EDB500558036E91
:101E30000C0EDB5000010224006E000E0320016E28
:101E4000010E0026000E012200C0F3FF01C0F4FFC6
:101E50006DD0FC0EDBCFE9FFDB2AFD0EDBCFEAFF06
:101E600001E3DB2A0D0EEFCFDBFF010EF36E0F0E49
:101E7000F3CFDBFF29D0080EDBCF26F0090EDBCF36
:101E800027F0FA0E26C0DBFFFB0E27C0DBFF0F0E8C
:101E9000DB501AE00A0EDBCF26F00B0EDBCF27F06B
:101EA000FC0E26C0DBFFFD0E27C0DBFFFC0EDBCFE8
:101EB000E9FFDB2AFD0EDBCFEAFF01E3DB2A0D0E93
:101EC000EFCFDBFF0F0EDB6A0C0EDB2A7AD70E0E8C
:101ED000DB50006E016AD950020FE96EDACFEAFFDB
:101EE0000050EE5E0150ED5A020EDBCF00F0030E03
:101EF000DBCF01F0FA0EDBCF02F0FB0EDBCF03F0FD
:101F00000250005C0350015803E2F368F4680ED0FD
:101F10000E0EDB50006E016AD950060FE96EDACF63
:101F2000EAFF0050EE260150ED22FAD5300EE15CBA
:101F300002E2E16AE552E16EE552E7CFD9FF120015
:101F4000D9CFE6FFE1CFD9FF310EE126FE0EDB50FF
:101F5000006E016A020E005C000E015809E2D950C1
:101F6000F90FE96EFF0EDA20EA6EEE50ED1003E194
:101F7000F36AF46A22D3FE0EDBCFE6FF70EC00F0CA
:101F8000E552FE0EDBCFE6FF18EC09F0E552F3CF89
:101F900002F0F4CF03F0F70EDB50025C006EF80E97
:101FA000DB500358016E020E00C0DBFF030E01C0C0
:101FB000DBFF020EDBCF00F0030EDBCF01F0F90EEA
:101FC000DBCF02F0FA0EDBCF03F00250005C0350CF
:101FD000015803E2F368F468F0D2D950F50FE96EC6
:101FE000FF0EDA20EA6EEE50ED101DE0020EDBCFA0
:101FF00000F0030EDBCF01F0F50EDBCF02F0F60EA2
:10200000DBCF03F00050025C015003580CE2F50EE8
:10201000DBCF26F0F60EDBCF27F0020E26C0DBFF6B
:10202000030E27C0DBFFF70EDB500601E22500019F
:10203000006EF80EDB500601E3210001016E060E72
:1020400000C0DBFF070E01C0DBFF060EDBCF00F098
:10205000070EDBCF01F006010050DA5D0150DB59BD
:1020600013E2D851DA5D006EDB51D955016E010ED5
:102070000026000E0122D950060FE96EDACFEAFFE2
:102080000050EE5E0150ED5A060EDBCFDEFFDBCFD7
:10209000DDFFDB50DA5D0001006E070EDB5006014C
:1020A000DB590001016E010E0026000E0122040E14
:1020B00000C0DBFF050E01C0DBFFF70EDBCF26F013
:1020C000F80EDBCF27F0060E26C0DBFF070E27C079
:1020D000DBFFF90EDBCF26F0FA0EDBCF27F0080E80
:1020E00026C0DBFF090E27C0DBFFD950FB0FE96ECE
:1020F000FF0EDA20EA6E0A0EEECFDBFF0B0EEECFFC
:10210000DBFF0C0EEECFDBFFD950FB0FE96EFF0EAD
:10211000DA20EA6EEFCFF6FFEE2AEFCFF7FF000EE0
:10212000EE22EFCFF8FFEE2208000E0EF5CFDBFF18
:10213000100EDB6AF40EDB5016E0610EF36E0E0E2D
:10214000DBCFF4FFF350F45C0EE30E0EDB507A08A5
:102150000AE3E00E006E0E0EDBCFE7FF0050E7262D
:102160000E0EE7CFDBFF200EF36E0F0EF3CFDBFF7B
:10217000DBCF00F0040EDBCF01F0050EDBCF02F069
:102180000050015C000E025806E2040EDB50E76EC0
:102190000F0EE7CFDBFF0F0EDBCF00F0020EDBCF21
:1021A00001F0030EDBCF02F00050015C000E02587C
:1021B00006E2020EDB50E76E0F0EE7CFDBFF0F0EDD
:1021C000DBCFE6FFE66AF1C6E6FFDECFE6FFDDCF56
:1021D000E6FF010EE66ED950110FE66E000EDA2012
:1021E000E66E17EC2DF0006E080EE15E00500F0E4B
:1021F000DB50DE26000EDD220F0EDB50006E016A82
:10220000D950040FE96EDACFEAFF0050EE5E0150BC
:10221000ED5AD950040FE96EDACFEAFFEE50ED1017
:1022200008E1D8C6DEFFD9C6DDFF040EDB68050E67
:10223000DB68F40EDB5001E1F7D00D0EDB6A0F0E08
:10224000DB50F36E0D0EDBCFF4FFF350F45C01E3D3
:10225000EAD0D950110F016EDACF02F00D0EDB502B
:102260000F010124E96E000E0220EA6EEFCF00F0AC
:10227000610E005C1FE3D950110F036EDACF04F03A
:102280000D0EDB500324E96E000E0420EA6EEF50C1
:102290007A0810E3E00E026ED950110F006EDACF0B
:1022A00001F00D0EDB500024E96E000E0120EA6EF5
:1022B0000250EF26D950110F006EDACF01F00D0E4B
:1022C000DB500024E96E000E0120EA6EEF50F36E41
:1022D0000E0EDB50F35C5BE1F90EDB06DBCF00F0AA
:1022E000FA0E01E2DB06DBCF01F0005001101FE126
:1022F000060EDBCF04F0070EDBCF05F0080EDB5037
:10230000045C026E090EDB500558036E0D0EDB50A7
:1023100000010224006E000E0320016E010E002653
:10232000000E012200C0F3FF01C0F4FF46D1D950D6
:10233000FB0FE96EFF0EDA20EA6EEFCFF6FFEE2A12
:10234000EFCFF7FF000EEE22EFCFF8FFEE220800EE
:102350000E0EF5CFDBFF010EF36E100EF3CFDBFF99
:10236000610EF36E0E0EDBCFF4FFF350F45C0EE360
:102370000E0EDB507A080AE3E00E006E0E0EDBCF85
:10238000E7FF0050E7260E0EE7CFDBFF49D0080E2F
:10239000DBCF26F0090EDBCF27F0F90E26C0DBFFDE
:1023A000FA0E27C0DBFF100EDB503AE0D9500A0FBF
:1023B000E96EDACFEAFFFB0EEECFDBFFFC0EEECFCD
:1023C000DBFFFD0EEECFDBFFD950FB0FE96EFF0EFA
:1023D000DA20EA6EEFCFF6FFEE2AEFCFF7FF000E1E
:1023E000EE22EFCFF8FFEE2208000E0EF5CFDBFF56
:1023F000610EF36E0E0EDBCFF4FFF350F45C0EE3D0
:102400000E0EDB507A080AE3E00E006E0E0EDBCFF4
:10241000E7FF0050E7260E0EE7CFDBFF100EDB6A6A
:102420000D0EDB2A0CD79AD00D0EDB6A0F0EDB5097
:10243000F36E0D0EDBCFF4FFF350F45C01E38ED0AE
:10244000D950110F006EDACF01F00D0EDB500F01E5
:102450000024E96E000E0120EA6EEF50F36E0E0EBE
:10246000DB50F35C45E1F90EDB06DBCF00F0FA0E42
:1024700001E2DB06DBCF01F0005001101FE1060E88
:10248000DBCF04F0070EDBCF05F0080EDB50045C59
:10249000026E090EDB500558036E0D0EDB50000175
:1024A0000224006E000E0320016E010E0026000EB5
:1024B000012200C0F3FF01C0F4FF7FD0D950FB0F11
:1024C000E96EFF0EDA20EA6EEFCFF6FFEE2AEFCFCD
:1024D000F7FF000EEE22EFCFF8FFEE2208000E0EFF
:1024E000F5CFDBFF010EF36E100EF3CFDBFF33D021
:1024F000080EDBCF26F0090EDBCF27F0F90E26C041
:10250000DBFFFA0E27C0DBFF100EDB5024E0D950B2
:102510000A0FE96EDACFEAFFFB0EEECFDBFFFC0E0F
:10252000EECFDBFFFD0EEECFDBFFD950FB0FE96EE8
:10253000FF0EDA20EA6EEFCFF6FFEE2AEFCFF7FFBD
:10254000000EEE22EFCFF8FFEE2208000E0EF5CFC0
:10255000DBFF100EDB6A0D0EDB2A68D70F0EDB5097
:10256000006E016AD950020FE96EDACFEAFF00501F
:10257000EE5E0150ED5A020EDBCF00F0030EDBCF12
:1025800001F0F90EDBCF02F0FA0EDBCF03F00250C0
:10259000005C0350015803E2F368F4680ED00F0E9C
:1025A000DB50006E016AD950060FE96EDACFEAFF00
:1025B0000050EE260150ED22D6D5310EE15C02E24C
:1025C000E16AE552E16EE552E7CFD9FF1200D9CFBB
:1025D000E6FFE1CFD9FFF80EDBCFE6FFF90EDBCF48
:1025E000E6FFFA0EDBCFE6FFFB0EDBCFE6FFFC0ECD
:1025F000DBCFE6FF010EE66EE66AD950FD0FE66E10
:10260000FF0EDA20E66EFE0EDBCFE6FF89EC0CF063
:10261000006E0A0EE15E005000D0E552E7CFD9FF10
:102620001200D9CFE6FFE1CFD9FF060EE126DF6A1F
:10263000DF50006E016A020E005C000E015801E3DB
:1026400077D3DFCFE6FF70EC00F0E552030EDB6AD4
:10265000010EDB6A020EDB6A0601EE51020B03E19A
:10266000EE51040B12E096EC63F000090EE0100E40
:10267000F36E030EF3CFDBFF0601EE51040B01E016
:10268000010EE76E010EE7CFDBFF0601EDAB15D0C3
:102690007AEC90F006012450E85D006E2550E9596F
:1026A000016E013404E200500008000E015405E3FD
:1026B000100EF36E030EF3CFDBFFEDAD15D07AEC09
:1026C00090F006012450EA5D006E2550EB59016E32
:1026D000013404E200500008000E015405E3100E1E
:1026E000F36E030EF3CFDBFF0B0EEC5D17E17AEC1C
:1026F00090F006012450EA5D006E2550EB59016E02
:10270000013404E200500008000E015407E3110EEA
:10271000F36E030EF3CFDBFF0C0EEC6F040EEC5DDB
:1027200001E02ED1040EDB6A050EDB6A040EDBCF5E
:1027300000F0050EDBCF01F0030E005C000E015827
:1027400001E31ED1040EDBCFE9FF050EDBCFEAFF6C
:10275000140EEA02F3CFEAFFE902F3CFE9FFF450E7
:10276000EA26000EE9260F0EEA22100EE926000ED8
:10277000EA22EE50ED1001E103D1040EDBCFE9FFB8
:10278000050EDBCFEAFF140EEA02F3CFEAFFE902FF
:10279000F3CFE9FFF450EA26000EE9260F0EEA22F5
:1027A000100EE926000EEA22EECF00F0EFCF01F086
:1027B000EF51001802E1F051011801E0DBD0BFEC4D
:1027C00000F00A0EE66EE66A040EDBCFE9FF050EA6
:1027D000DBCFEAFF140EEA02F3CFEAFFE902F3CF00
:1027E000E9FFF450EA26000EE9260F0EEA22E9CFAF
:1027F00000F0EACF01F000C0E6FF01C0E6FFC50E21
:10280000E66E060EE66E43EC8EF0026E060EE15E9C
:102810000250040EDBCFE9FF050EDBCFEAFF140EFA
:10282000EA02F3CFEAFFE902F3CFE9FFF450EA2628
:10283000000EE9260F0EEA220A0EE926000EEA2211
:10284000EECFBDF6EDCFBEF6040EDBCFE9FF050EF1
:10285000DBCFEAFF140EEA02F3CFEAFFE902F3CF7F
:10286000E9FFF450EA26000EE9260F0EEA220C0ECC
:10287000E926000EEA22EECFB7F6EECFB8F6EECF9D
:10288000B9F6EFCFBAF60601B72BB823B923BA23AE
:10289000C751C525026EC851C621036E0250BD2521
:1028A000006E0350BE21016E0050BF19EF6F015042
:1028B000C019F06F120EF36E030EF3CFDBFF060E9E
:1028C000EC6F040EDBCF00F0050EDBCF01F0020E43
:1028D000D8800056000E0156140E0102F3CF01F00D
:1028E0000002F3CF00F0F450012600C0E6FF01C063
:1028F000E6FF010EE66EE76E040EDBCF02F0050E7A
:10290000DBCF03F0E7500226000E0322140E030271
:10291000F3CF03F00202F3CF02F0F4500326000ECF
:1029200002260F0E032202C0E6FF03C0E6FF010EDF
:10293000E66E040EDBCF04F0050EDBCF05F0140EBF
:102940000502F3CF05F00402F3CF04F0F45005269E
:10295000000E04260F0E052204C0E6FF05C0E6FFA8
:1029600017EC2DF0066E080EE15E06500F01386B75
:10297000396B06D0040EDB2A050E01E3DB2AD6D61E
:10298000030EDB500DE0010EDB5002E0000E01D023
:10299000010EE66E030EDBCFE6FF9CDBE552E5524F
:1029A0000601EDB952D0070EEC5D4EE16FEC90F0F0
:1029B0000601E451245C006EE5512558016EE65194
:1029C0002658026EE7512758036E0001800E03144B
:1029D00001E0ACD10601ED51070B060819E1ED51FC
:1029E000080B01E0010EE76E030EE7CFDBFFDFCF40
:1029F000E6FFC7EC03F0E552DFCFE6FFC7EC03F0DC
:102A0000E552030EDB5003E106010E0EEC6F8ED192
:102A1000BFEC00F0020EE66E100EE66E5BDBE552D8
:102A2000E5526FEC90F024C0E4F625C0E5F626C030
:102A3000E6F627C0E7F6740E0601E427350EE52317
:102A4000060EE623000EE72371D16FEC90F006012D
:102A5000E451245C006EE5512558016EE65126587C
:102A6000026EE7512758036E0001800E031401E047
:102A70005DD1BFEC00F00601EC510C0A01E1E0D0A1
:102A8000060A01E1C6D0030A01E1B8D0010A01E15A
:102A90009ED00F0A01E187D00C0A01E184D00D0A13
:102AA00063E0030A4CE0060A15E0010A01E0DFD00A
:102AB0007AEC90F024C0E8F625C0E9F6C50EE66E83
:102AC000060EE66EACEC79F0E552E5520601030E17
:102AD000EC6FCDD0C90EE66E060EE66EC50EE66E44
:102AE000060EE66E19EC7AF0E552E552E552E55233
:102AF00000091AE17AEC90F00601E851245C006EBE
:102B0000E9512558016E0050AF5D0150B0590BE2FC
:102B1000060ED45D06E2D42BD890AF37B037B1376C
:102B2000B237020EEC6FA3D0020EF36E030EF3CF9A
:102B3000DBFF010EDB6A0601050EEC6F98D0020E7A
:102B4000F36E030EF3CFDBFFDE52010EDD6E040EDB
:102B5000D45D09E3040ED46F200EAF6FEF0EB06F9B
:102B6000090EB16FB26B83D0020ED45D09E2120E72
:102B7000F36E030EF3CFDBFFDE52010EDD6E12D0DB
:102B8000EDA70BD0140EF36E030EF3CFDBFF010E97
:102B9000F36E020EF3CFDBFF05D0020EF36E030ED1
:102BA000F3CFDBFF64D0050ED45D09E2100EF36EA7
:102BB000030EF3CFDBFFDE52010EDD6E07D0080EF1
:102BC000EC6F110EF36E030EF3CFDBFF50D0050E4A
:102BD000D45D09E2110EF36E030EF3CFDBFFDE527C
:102BE000010EDD6E0AD0140EF36E030EF3CFDBFF81
:102BF000010EF36E020EF3CFDBFF39D0140EF36E2D
:102C0000030EF3CFDBFF010EF36E020EF3CFDBFFFB
:102C10002ED0050ED45D09E2100EF36E030EF3CF35
:102C2000DBFFDE52010EDD6E0AD0140EF36E030ED2
:102C3000F3CFDBFF010EF36E020EF3CFDBFF17D0F5
:102C4000050ED45D09E2110EF36E030EF3CFDBFF28
:102C5000DE52010EDD6E0AD0140EF36E030EF3CFBA
:102C6000DBFF010EF36E020EF3CFDBFF00D0030E8D
:102C7000DB5057E0010EDB504CE0D42BD890AF373F
:102C8000B037B137B237DE51BB5D006EBC51DF5596
:102C9000016E040E00C0DBFF050E01C0DBFFDE513C
:102CA000BB5DDF51BC590FE2D651D85D006ED951E2
:102CB000D755016ED950040FE96EDACFEAFF005004
:102CC000EE260150ED22040EDBCF00F0050EDBCF27
:102CD00001F0026A036A0050B35F0150B45B025016
:102CE000B55B0350B65B040EDBCF26F0050EDBCFE1
:102CF00027F02650C1272750C223DEC6BBF6DFC609
:102D0000BCF6E66A030EDBCFE6FFE4D9E552E552F6
:102D100008D0010EE66E030EDBCFE6FFDBD9E552ED
:102D2000E552020EDB5002E07CEC20F0DF2A80D47A
:102D3000040EDB6A050EDB6A040EDBCF00F0050E25
:102D4000DBCF01F0030E005C000E015801E3B1D0AF
:102D5000040EDBCFE9FF050EDBCFEAFF140EEA021B
:102D6000F3CFEAFFE902F3CFE9FFF450EA26000EC1
:102D7000E9260F0EEA22100EE926000EEA22EE5096
:102D8000ED1001E196D0040EDBCFE9FF050EDBCF9D
:102D9000EAFF140EEA02F3CFEAFFE902F3CFE9FFFC
:102DA000F450EA26000EE9260F0EEA22120EE9265A
:102DB000000EEA22EECF02F0EFCF03F002C0E6FFF2
:102DC00003C0E6FF7AEC90F0E552E7CF03F0E5525E
:102DD000E7CF02F00250245C006E03502558016ECC
:102DE000DC0ED8800054010E01545DE2040EDBCFEE
:102DF00000F0050EDBCF01F0020ED8800056000E69
:102E00000156140E0102F3CF01F00002F3CF00F0DF
:102E1000F450012600C0E6FF01C0E6FF010EE66E99
:102E2000E76E040EDBCF02F0050EDBCF03F0E750B8
:102E30000226000E0322140E0302F3CF03F0020257
:102E4000F3CF02F0F4500326000E02260F0E0322E9
:102E500002C0E6FF03C0E6FF010EE66E040EDBCF04
:102E600004F0050EDBCF05F0140E0502F3CF05F0DC
:102E70000402F3CF04F0F4500526000E04260F0ED2
:102E8000052204C0E6FF05C0E6FF17EC2DF0066E34
:102E9000080EE15E06500F01386B396B040EDB063D
:102EA000050E01E2DB06040EDB2A050E01E3DB2A38
:102EB00043D7060EE15C02E2E16AE552E16EE552BB
:102EC000E7CFD9FF1200D9CFE6FFE1CFD9FF250E1A
:102ED000E126FD0EDBCFE9FFFE0EDBCFEAFF140E8D
:102EE000EECFDBFF150EEECFDBFF160EEECFDBFFD6
:102EF000170EEECFDBFFFB0EDBCFE9FFFC0EDBCFC7
:102F0000EAFF180EEECFDBFF190EEECFDBFF1A0E35
:102F1000EECFDBFF1B0EEECFDBFF1C0EDB6A060ED7
:102F2000F36E1D0EF3CFDBFFF90EDBCF26F0FA0EAA
:102F3000DBCF27F01E0E26C0DBFF1F0E27C0DBFFF6
:102F40001E0EDBCFE6FF1F0EDBCFE6FFFDEC60F0D1
:102F5000E552E5521E0EF3CFDBFF1F0EF4CFDBFF71
:102F60000C0EE66EE66AD950140FE66E000EDA20FB
:102F7000E66E7AEC61F0E552E552E552E552F3CFA8
:102F800000F0F4CF01F0001E011E200E00C0DBFF98
:102F9000210E01C0DBFFF90EDBCFE6FFFA0EDBCF1F
:102FA000E6FF83EC66F0E552E552220EF3CFDBFF3D
:102FB000230EF4CFDBFF200EDBCF00F0210EDBCFA2
:102FC00001F0220EDB50001803E1230EDB50011844
:102FD00004E0B3EC63F0010E71D0000EE66EE66A19
:102FE000E9EC81F0E552E552140EE66EE66AD9CFBF
:102FF000E6FFDACFE6FFC7EC68F0E552E552E552AE
:10300000E552D9CFE6FFDACFE6FF64EC1FF0E552D8
:10301000E552D9500C0FE96EDACFEAFFEF50F00B12
:10302000E842E842E842E842040DF350006E016ACB
:10303000140E005E000E015A240E00C0DBFFDB50B0
:10304000026E036AF90EDBCF26F0FA0EDBCF27F013
:103050000250265C006E03502758016E140E005E6D
:10306000000E015AF90E00C0DBFFFA0E01C0DBFFB3
:10307000FD0EDBCFE6FFFE0EDBCFE6FFD9CFE6FF8E
:10308000DACFE6FF55EC1CF0E552E552E552E55289
:10309000000910E0F90EDBCFE6FFFA0EDBCFE6FF0A
:1030A000D9CFE6FFDACFE6FF79EC21F0E552E55221
:1030B000E552E552B3EC63F0010E00D0006E250E30
:1030C000E15C02E2E16AE552E16E0050E552E7CFD1
:1030D000D9FF1200D9CFE6FFE1CFD9FF280EE126B4
:1030E000BFEC00F0FE0EDBA004D00601EE87FE0E62
:1030F000DB900601ED9BED9DED9FEE93EE95EE913D
:1031000096EC63F0000901E1FBD7FE0EDB50060BE5
:1031100005E0260EDB6A270EDB6A57D10601BB519C
:10312000DC1902E1BC51DD1905E1260EDB6A270E30
:10313000DB6A2FD1DC51BB5DDD51BC5952E2BB5182
:10314000DC5D006EDD51BC55016E260E00C0DBFF5C
:10315000270E01C0DBFF260EDBCF00F0270EDBCFF2
:1031600001F00050C15D0150C25906E2260EC1C6F1
:10317000DBFF270EC2C6DBFF260EDBCF00F0270EDB
:10318000DBCF01F00050D25D0150D35907E2260E8B
:10319000D2C6DBFF270ED3C6DBFFEE85260EDBCFC4
:1031A000E6FF270EDBCFE6FFF1C6E6FFBBC6E6FF74
:1031B000BCC6E6FFE66A050EE66E0B0EE66E17EC81
:1031C0002DF0006E080EE15E0050260EDBCF26F0DB
:1031D000270EDBCF27F026500601BB272750BC2344
:1031E000D8D0BB51D85D006ED951BC55016E240EAC
:1031F00000C0DBFF250E01C0DBFF240EDB50DC2509
:103200000001026E250EDB500601DD210001036E78
:103210000601D651025C006ED7510358016E260E8E
:1032200000C0DBFF270E01C0DBFF260EDBCF00F066
:10323000270EDBCF01F00050C15D0150C25906E2FC
:10324000260EC1C6DBFF270EC2C6DBFF260EDBCF74
:1032500000F0270EDBCF01F00050D25D0150D359B2
:1032600007E2260ED2C6DBFF270ED3C6DBFFEE85B4
:10327000240EDBCF00F0250EDBCF01F0260EDBCFD6
:1032800002F0270EDBCF03F00050025C0150035820
:103290000CE2260EDBCF26F0270EDBCF27F0240E24
:1032A00026C0DBFF250E27C0DBFF240EDBCFE6FFA9
:1032B000250EDBCFE6FFF1C6E6FFBBC6E6FFBCC6C8
:1032C000E6FFE66A050EE66E0B0EE66E17EC2DF0D5
:1032D000006E080EE15E0050260EDBCF02F0270ED6
:1032E000DBCF03F0240EDB50025C006E250EDB50BA
:1032F0000358016E240E00C0DBFF250E01C0DBFF6A
:10330000D950240FE96EDACFEAFFEE50ED1027E036
:10331000240EDBCFE6FF250EDBCFE6FFF1C6E6FF8E
:10332000D6C6E6FFD7C6E6FFE66A0601BB51D85D02
:10333000006ED951BC55016E026A036A050E002663
:103340000B0E0122000E0222032200C0E6FF01C084
:10335000E6FF17EC2DF0046E080EE15E0450260E19
:10336000DBCF26F0270EDBCF27F026500601BB2748
:103370002750BC23D851BB5DD951BC590AE3D65163
:10338000D85D006ED951D755016E0050BB5F01501A
:10339000BC5BEEA71AD0260EDBCF00F0270EDBCFEA
:1033A00001F0C151001802E1C25101180EE0260ED1
:1033B000DBCF02F0270EDBCF03F0D251021802E17F
:1033C000D351031802E0FE0EDB80D950260FE96EC0
:1033D000DACFEAFFEE50ED1004E1FE0EDB50030BF6
:1033E00030E0260EDBCF26F0270EDBCF27F026506D
:1033F0000601C15F2750C25BD950260FE96EDACFB4
:10340000EAFFEE50ED1002E0FE0EDB86FD0EDBA0C3
:1034100007D0D46BF20EAF6F9E0EB06FB16BB26B74
:103420006FEC90F024500601AF25E46F2550B021D9
:10343000E56F2650B121E66F2750B221E76FED8985
:103440003ED0FD0EDBA21FD0ED0EE96E060EEA6E39
:10345000EF50070BE82AF36EF350070BF36EF46E90
:10346000F80EEF14F310EF6EF4500601B307000EE0
:10347000B45BB55BB65B010EF36E260EF3CFDBFFDC
:10348000270EDB6A1CD00601EDA919D0DBB008D0ED
:10349000D45106E0D407D890B233B133B033AF3350
:1034A0006FEC90F024500601AF25E46F2550B02159
:1034B000E56F2650B121E66F2750B221E76F020E6B
:1034C000BFC6DBFF030EC0C6DBFF040EBDC6DBFFBD
:1034D000050EBEC6DBFF060EB3C6DBFF070EB4C685
:1034E000DBFF080EB5C6DBFF090EB6C6DBFF0A0E12
:1034F000B7C6DBFF0B0EB8C6DBFF0C0EB9C6DBFF91
:103500000D0EBAC6DBFF0F0EDB9CDB9E0E0EDB90B2
:10351000DB92DB94DB96FE0EDB50E76E0F0EE7CFFF
:10352000DBFF140EDB6A150EDB6A260EDBCF00F024
:10353000270EDBCF01F0000100500601B327000188
:1035400001500601B423000EB523B623FE0EDBA204
:103550001DD0DBB808D00A0EDB6A0B0EDB6A0C0E3E
:10356000DB6A0D0EDB6AD1A30BD0D950060FE96ED2
:10357000DACFEAFFEE06000EEE5AEE5AEE5A06D009
:10358000B32B000EB423B523B623D183FE0EDBA0EC
:1035900013D0D1A10BD0D950060FE96EDACFEAFFD4
:1035A000EE06000EEE5AEE5AEE5A06D0B32B000E7F
:1035B000B423B523B623D181E251E05DE351E15953
:1035C00019E3D851DA5D026EDB51D955036EE25131
:1035D000E05D046EE151E355056E0450025C006E3F
:1035E00005500358016E100E00C0DBFF110E01C024
:1035F000DBFF0FD0E051E25D006EE351E155016E5B
:103600000006000E015A100E00C0DBFF110E01C0B3
:10361000DBFFFBEC63F0F3CFDEFFF4CFDDFFDECFAB
:1036200000F0DDCF01F0400E005C000E015803E217
:10363000DE6ADD6A08D0D9CFE9FFDACFEAFF400EB3
:10364000EE5E000EED5A100EDBCF00F0110EDBCF58
:1036500001F0DECF02F0DDCF03F00050025C01503C
:1036600003580AE2D9CFE9FFDACFEAFF100EEECF16
:10367000DBFF110EEDCFDBFFD950020FE66E000E1F
:10368000DA20E66E64EC1FF0E552E552D950260FC1
:10369000E96EDACFEAFF140EEE26000EED220E0ED2
:1036A000DB88DB9ADB8CDB9EFE0EDBA236D0D950AA
:1036B000260FE96EDACFEAFF040EEE26000EED22A9
:1036C000020EF36E160EF3CFDBFF040EF36E170E31
:1036D000F3CFDBFF020EF36E180EF3CFDBFFF36EBA
:1036E000190EF3CFDBFF010E006ED9500E0FE96EFD
:1036F000DACFEAFFEF50F00BE842E842E842E84256
:1037000000240F0BF36EF46EF346F346F346F346D4
:103710000F0EEF14F310EF6EF4501A0EA1C7DBFF7B
:103720001B0EA2C7DBFF1C0EA3C7DBFF1D0EA4C729
:10373000DBFF1E0EC5C6DBFF1F0EC6C6DBFF200E5D
:10374000C7C6DBFF210EC8C6DBFF220EDB6A060EF2
:10375000F36E230EF3CFDBFF260EDBCF26F0270E12
:10376000DBCF27F0240E26C0DBFF250E27C0DBFFB2
:10377000240EDBCFE6FF250EDBCFE6FFFDEC60F08D
:10378000E552E552240EF3CFDBFF250EF4CFDBFF2D
:103790000C0EE66EE66AD9501A0FE66E000EDA20BD
:1037A000E66E7AEC61F0E552E552E552E552F3CF70
:1037B00000F0F4CF01F0001E011E120E00C0DBFF6E
:1037C000130E01C0DBFFDD0EE66E0A0EE66EDCECCA
:1037D00065F0E552E552260EDBCFE6FF270EDBCF84
:1037E000E6FF060EE66EC50EE66E060EE66E37ECDA
:1037F00081F0006E050EE15E0050140EE66EE66A82
:10380000D950020FE66E000EDA20E66E24EC69F065
:10381000E552E552E552E552FE0EDBA20FD0040E52
:10382000E66EE66AD950160FE66E000EDA20E66EF6
:1038300024EC69F0E552E552E552E552F10EE66EF0
:103840000A0EE66EFFEC65F0E552E552260EDBCF80
:10385000E6FF270EDBCFE6FF83EC66F0E552E5528C
:10386000F3CFDEFFF4CFDDFF010EE66E0B0EE66E4A
:10387000DCEC65F0E552E552020EE66EE66AD9CF61
:10388000E6FFDACFE6FF24EC69F0E552E552E552B7
:10389000E55281EC65F0280EE15C02E2E16AE55256
:1038A000E16EE552E7CFD9FF1200D9CFE6FFE1CFB5
:1038B000D9FF060EE126FD0EDBCFE9FFFE0EDBCFC2
:1038C000EAFF020EE926000EEA22EE50ED1002E1B8
:1038D000000EEED2DE52FE0EDD6EFB0EDBCFE9FFF8
:1038E000FC0EDBCFEAFF020EE926000EEA22EECF45
:1038F00006F0EFCF07F0FB0EDBCFE9FFFC0EDBCFCE
:10390000EAFF0650EE24046E0750EE20056EFD0E11
:10391000DBCFE9FFFE0EDBCFEAFF0450EE24026EA0
:103920000550EE20036EFD0EDBCFE9FFFE0EDBCF70
:10393000EAFF020EE926000EEA220250EE18006E9F
:103940000350EE18016E020E00C0DBFF030E01C033
:10395000DBFFDF6ADF50006E016A020E005C000EC2
:10396000015872E2DFCFE6FF70EC00F0E5520D0E79
:103970000601EC5D02E166D029D0040EEC5D19E190
:10398000FD0EDBCFE9FFFE0EDBCFEAFF020EE926DC
:10399000000EEA22EECF00F0EFCF01F00050EF1959
:1039A00002E10150F01903E1010EDFCFDBFF4AD045
:1039B0000DD0EFC600F0F0C601F0020EDB5000188B
:1039C00003E1030EDB50011801E03CD0BFEC00F036
:1039D000FD0EDBCFE9FFFE0EDBCFEAFF020EE9268C
:1039E000000EEA22EECF00F0EFCF01F00601BF514A
:1039F000001802E1C051011825E1FD0EDBCFE9FFFF
:103A0000FE0EDBCFEAFFEECF02F0EFCF03F0BD51A9
:103A1000021802E1BE51031815E1FB0EDBCFE9FFEE
:103A2000FC0EDBCFEAFFEE50C51909E1EE50C619D6
:103A300006E1EE50C71903E1EE50C81900E102E1BA
:103A4000010E36D2DF2A86D7010EDB50FE0843E096
:103A5000010EDBCFE6FF70EC00F0E552BFEC00F0AA
:103A6000010EDB50FE0837E0020EDBCFEFF6030E4F
:103A7000DBCFF0F60A0EE66EE66AFB0EDBCFE6FF62
:103A8000FC0EDBCFE6FFC50EE66E060EE66E43ECDF
:103A90008EF0006E060EE15E0050FD0EDBCFE9FFFA
:103AA000FE0EDBCFEAFFEECFBDF6EDCFBEF6FD0E8C
:103AB000DBCFE9FFFE0EDBCFEAFF020EE926000EA8
:103AC000EA22EECFBFF6EDCFC0F6D6C6BBF6D7C61C
:103AD000BCF6010EEDD1FD0EDBCFE9FFFE0EDBCF14
:103AE000EAFF0D0EE926000EEA22EF50020B02E17A
:103AF000000EDED10F013851391102E0000ED8D18D
:103B0000040EDB6A050EDB6A040EDBCF00F0050E47
:103B1000DBCF01F0030E005C000E015801E3CFD0B3
:103B2000040EDBCFE9FF050EDBCFEAFF140EEA023D
:103B3000F3CFEAFFE902F3CFE9FFF450EA26000EE3
:103B4000E9260F0EEA22100EE926000EEA22EE50B8
:103B5000ED1001E1B4D0040EDBCFE9FF050EDBCFA1
:103B6000EAFF140EEA02F3CFEAFFE902F3CFE9FF1E
:103B7000F450EA26000EE9260F0EEA22100EE9267E
:103B8000000EEA22EECF00F0EFCF01F0FD0EDBCF0A
:103B9000E9FFFE0EDBCFEAFF020EE926000EEA2265
:103BA000EECF02F0EFCF03F00250001802E1035015
:103BB000011801E07ED0040EDBCFE9FF050EDBCF5C
:103BC000EAFF140EEA02F3CFEAFFE902F3CFE9FFBE
:103BD000F450EA26000EE9260F0EEA220A0EE92624
:103BE000000EEA22EECF00F0EFCF01F0FD0EDBCFAA
:103BF000E9FFFE0EDBCFEAFFEECF02F0EFCF03F0DE
:103C00000250001802E10350011801E052D0FB0EEF
:103C1000DBCFE9FFFC0EDBCFEAFFEECF00F0EECF0B
:103C200001F0EECF02F0EFCF03F0040EDBCFE9FF9F
:103C3000050EDBCFEAFF140EEA02F3CFEAFFE9023A
:103C4000F3CFE9FFF450EA26000EE9260F0EEA2230
:103C5000EE500001001809E1EE50011806E1EE50A7
:103C6000021803E1EE50031800E101E022D07AECE3
:103C700090F024C000F025C001F0040EDBCFE9FF76
:103C8000050EDBCFEAFF140EEA02F3CFEAFFE902EA
:103C9000F3CFE9FFF450EA26000EE9260F0EEA22E0
:103CA000120EE926000EEA2200C0EEFF01C0EDFF71
:103CB000FFD0040EDB2A050E01E3DB2A25D7DF6ADD
:103CC000DF50006E016A020E005C000E015801E335
:103CD000EDD0DFCFE6FF70EC00F0E5520601EDA776
:103CE000E3D0BFEC00F0FD0EDBCFE9FFFE0EDBCF33
:103CF000EAFF020EE926000EEA22EECF00F0EFCF37
:103D000001F000500601BF1902E10150C01901E0A5
:103D1000CBD00A0EE66EE66AFB0EDBCFE6FFFC0EAA
:103D2000DBCFE6FF040EDBCFE9FF050EDBCFEAFFBA
:103D3000140EEA02F3CFEAFFE902F3CFE9FFF450F1
:103D4000EA26000EE9260F0EEA22E9CF00F0EACFBC
:103D500001F000C0E6FF01C0E6FF43EC8EF0026E0A
:103D6000060EE15E0250FD0EDBCFE9FFFE0EDBCF5B
:103D7000EAFFEECF00F0EFCF01F0040EDBCFE9FF5A
:103D8000050EDBCFEAFF140EEA02F3CFEAFFE902E9
:103D9000F3CFE9FFF450EA26000EE9260F0EEA22DF
:103DA0000A0EE926000EEA2200C0EEFF01C0EDFF78
:103DB000FD0EDBCFE9FFFE0EDBCFEAFF040EE926A6
:103DC000000EEA22EECF00F0EECF01F0EECF02F0CF
:103DD000EFCF03F0040EDBCFE9FF050EDBCFEAFFE8
:103DE000140EEA02F3CFEAFFE902F3CFE9FFF45041
:103DF000EA26000EE9260F0EEA220C0EE926000E36
:103E0000EA2200C0EEFF01C0EEFF02C0EEFF03C0D9
:103E1000EEFFFD0EDBCFE9FFFE0EDBCFEAFF020E69
:103E2000E926000EEA22EECF00F0EFCF01F0040EFB
:103E3000DBCFE9FF050EDBCFEAFF140EEA02F3CF7A
:103E4000EAFFE902F3CFE9FFF450EA26000EE92683
:103E50000F0EEA22100EE926000EEA2200C0EEFF45
:103E600001C0EDFF7AEC90F024C000F025C001F015
:103E7000040EDBCFE9FF050EDBCFEAFF140EEA02EA
:103E8000F3CFEAFFE902F3CFE9FFF450EA26000E90
:103E9000E9260F0EEA22120EE926000EEA2200C0E1
:103EA000EEFF01C0EDFF04D0DF2A0AD7000E00D0DC
:103EB000006E060EE15C02E2E16AE552E16E00503E
:103EC000E552E7CFD9FF1200D9CFE6FFE1CFD9FF06
:103ED000FD0EDBCFE9FFFE0EDBCFEAFFEECFE6FF04
:103EE000EFCFE6FFFDEC60F0E552E552F3CF00F0D6
:103EF000F4CF01F0FD0EDBCFE9FFFE0EDBCFEAFFD2
:103F000000C0EEFF01C0EDFFFD0EDBCFE9FFFE0EAE
:103F1000DBCFEAFF020EE926000EEA22EECFE6FF33
:103F2000EFCFE6FFFDEC60F0E552E552F3CF00F095
:103F3000F4CF01F0FD0EDBCFE9FFFE0EDBCFEAFF91
:103F4000020EE926000EEA2200C0EEFF01C0EDFFDE
:103F5000FD0EDBCFE9FFFE0EDBCFEAFF040EE92604
:103F6000000EEA22EECFE6FFEECFE6FFEECFE6FF51
:103F7000EFCFE6FF27EC61F0E552E552E552E5525E
:103F800024C000F025C001F026C002F027C003F0D5
:103F9000FD0EDBCFE9FFFE0EDBCFEAFF040EE926C4
:103FA000000EEA2200C0EEFF01C0EEFF02C0EEFFED
:103FB00003C0EEFFFD0EDBCFE9FFFE0EDBCFEAFF15
:103FC000080EE926000EEA22EECFE6FFEECFE6FF6E
:103FD000EECFE6FFEFCFE6FF27EC61F0E552E552CA
:103FE000E552E55224C000F025C001F026C002F0E1
:103FF00027C003F0FD0EDBCFE9FFFE0EDBCFEAFFAB
:10400000080EE926000EEA2200C0EEFF01C0EEFF16
:1040100002C0EEFF03C0EEFFFD0EDBCFE9FFFE0E98
:10402000DBCFEAFF0E0EE926000EEA22EECFE6FF16
:10403000EFCFE6FFFDEC60F0E552E552F3CF00F084
:10404000F4CF01F0FD0EDBCFE9FFFE0EDBCFEAFF80
:104050000E0EE926000EEA2200C0EEFF01C0EDFFC1
:10406000FD0EDBCFE9FFFE0EDBCFEAFF100EE926E7
:10407000000EEA22EECFE6FFEFCFE6FFFDEC60F0A8
:10408000E552E552F3CF00F0F4CF01F0FD0EDBCFA7
:10409000E9FFFE0EDBCFEAFF100EE926000EEA2252
:1040A00000C0EEFF01C0EDFFFD0EDBCFE9FFFE0E0D
:1040B000DBCFEAFF120EE926000EEA22EECFE6FF82
:1040C000EFCFE6FFFDEC60F0E552E552F3CF00F0F4
:1040D000F4CF01F0FD0EDBCFE9FFFE0EDBCFEAFFF0
:1040E000120EE926000EEA2200C0EEFF01C0EDFF2D
:1040F000E552E7CFD9FF1200BFEC00F0BFC6EFF6E4
:10410000C0C6F0F6D6C6DCF6D7C6DDF6D6C6DEF6F5
:10411000D7C6DFF6D8C6E0F6D9C6E1F6D8C6E2F6CD
:10412000D9C6E3F60601ED51080B02E0040E01D0FA
:104130000D0EEC6FED91ED93ED95ED99ED9BED9DF1
:10414000ED9FEE91EE93EE95EE97EE89D191D1939E
:10415000D197D199D6C6BBF6D7C6BCF67FEC5BF03B
:10416000F3CFB3F6F4CFB4F67FEC5BF0F3CFB5F654
:10417000F4CFB6F60601CF69D069010EC16FC26BEC
:104180001200D9CFE6FFE1CFD9FF040EE1260C0ED5
:10419000E66EE66AE9EC81F0E552E552C4EC68F0BF
:1041A000DF6EF00EDF14E840E8403F0B006E016A5E
:1041B000140E005E000E015A0050DF6EDF5005E164
:1041C000180EF36E020EF46E8AD0070EE66EE66AE3
:1041D000000EE66EE66AC7EC68F0E552E552E5527D
:1041E000E552DF50DF06000975E0C4EC68F0E76EC9
:1041F000010EE7CFDBFFDB5001E16CD0010EDB04E9
:1042000001E1EFD7010EDB50020845E1030EDF5C50
:1042100001E260D0020EDB6A030EDB6AC4EC68F0D8
:10422000E76E010EE7CFDBFFDB5004080CE1C4ECC6
:1042300068F0E76E030EE7CFDBFFC4EC68F0E76ED3
:10424000020EE7CFDBFF020EDBCF00F0030EDBCF69
:1042500001F0180E005C020E015801E23BD0D9506B
:10426000020FE96EDACFEAFFB40ED880EE54050EE5
:10427000ED5406E2B40EF36E050EF46E30D029D084
:10428000020EDBCF00F0030EDBCF01F000C0F3FF26
:1042900001C0F4FF24D0020EDF5C01E21BD0C4ECAD
:1042A00068F0E76E010EE7CFDBFFDB50DF5C01E279
:1042B00011D0010EDBCFE6FFE66A000EE66EE66A7D
:1042C000C7EC68F0E552E552E552E552010EDB50CD
:1042D000DF5E87D7180EF36E020EF46E00D0040E68
:1042E000E15C02E2E16AE552E16EE552E7CFD9FF17
:1042F0001200D9CFE6FFE1CFD9FF1C0EE126FD0E5B
:10430000DBCFE9FFFE0EDBCFEAFF0D0EE926000E44
:10431000EA220E0EEFCFDBFFFD0EDBCFE9FFFE0E34
:10432000DBCFEAFF080EE926000EEA220F0EEECFE1
:10433000DBFF100EEECFDBFF110EEECFDBFF120E18
:10434000EECFDBFFFD0EDBCFE9FFFE0EDBCFEAFF9A
:10435000040EE926000EEA22130EEECFDBFF140E48
:10436000EECFDBFF150EEECFDBFF160EEECFDBFF41
:104370000601ED91ED93ED95EDB913D06FEC90F052
:1043800024C0E4F625C0E5F626C0E6F627C0E7F629
:10439000740E0601E427350EE523060EE623000E13
:1043A000E723EC51050A5CE0010A15E0FB0EDBCFC8
:1043B00026F0FC0EDBCF27F0170E26C0DBFF180E11
:1043C00027C0DBFF0E0EDBA0EAD0170EDB2A180E8B
:1043D00001E2E5D0E3D00E0EDBA403D08DDE6DEF5D
:1043E0002BF0DBA816D00F0EDBCFB3F6100EDBCF11
:1043F000B4F6110EDBCFB5F6120EDBCFB6F6E66AD9
:10440000040EE66E6AEC18F0E552E55275DE6DEFCB
:104410002BF0DBA222D0130EDBCFB7F6140EDBCFCE
:10442000B8F6150EDBCFB9F6160EDBCFBAF6B72B02
:10443000000EB823B923BA23A4DEF3CFD2F6F4CF0B
:10444000D3F6010EE66E120EE66E6AEC18F0E55237
:10445000E5520601060EEC6F01D04EDE6DEF2BF03B
:104460000E0EDBA402D06DEF2BF0DBA840D0D950AC
:104470000F0FE96EDACFEAFFEE50B31909E1EE5003
:10448000B41906E1EE50B51903E1EE50B61900E19A
:104490002EE0130EB3C6DBFF140EB4C6DBFF150E01
:1044A000B5C6DBFF160EB6C6DBFF0F0EDBCFB3F6CD
:1044B000100EDBCFB4F6110EDBCFB5F6120EDBCF4C
:1044C000B6F6010EE66E040EE66E6AEC18F0E552E2
:1044D000E552130EDBCFB3F6140EDBCFB4F6150E98
:1044E000DBCFB5F6160EDBCFB6F66DEF2BF00E0E6A
:1044F000DBA252D0130EDBCFB7F6140EDBCFB8F62B
:10450000150EDBCFB9F6160EDBCFBAF6B72B000EC1
:10451000B823B923BA23FD0EDBCFE9FFFE0EDBCFB4
:10452000EAFF0E0EE926000EEA22EECFC1F6EDCF2D
:10453000C2F627DEF3CFD2F6F4CFD3F60E0EDBA809
:1045400020D0010EE66E100EE66E6AEC18F0E55211
:10455000E5520601070EEC6F6FEC90F024C0E4F614
:1045600025C0E5F626C0E6F627C0E7F6740E06017C
:10457000E427350EE523060EE623000EE723ED992A
:104580000BD0010EE66E120EE66E6AEC18F0E552E4
:10459000E5520601060EEC6F6DEF2BF0DB2A0E0ED6
:1045A000DBA205D0170EDB2A180E01E3DB2AE2514D
:1045B000E05DE351E15919E3D851DA5D026EDB5158
:1045C000D955036EE251E05D046EE151E355056E8D
:1045D0000450025C006E05500358016E0C0E00C0C2
:1045E000DBFF0D0E01C0DBFF0FD0E051E25D006E7E
:1045F000E351E155016E0006000E015A0C0E00C099
:10460000DBFF0D0E01C0DBFFD950130FE96EDACFCF
:10461000EAFFB751EE5C006EB851EE58016EB95129
:10462000EE58026EBA51EE58036E060E00C0DBFF64
:10463000070E01C0DBFF080E02C0DBFF090E03C03E
:10464000DBFF060EDBCF26F0070EDBCF27F00A0ECE
:1046500026C0DBFF0B0E27C0DBFF190EDB6AD9502B
:10466000170FE96EDACFEAFFEE50ED1001E1C3D08B
:10467000D9500C0FE96EDACFEAFFEE50ED1001E1F0
:10468000B9D0D950060FE96EDACFEAFFD890030E01
:10469000EB50000A08E6000EEE5C000EEE58000E2D
:1046A000EE58000EEE581CE30C0EDBCF00F00D0EA2
:1046B000DBCF01F0026A036AD950060FE96EDACF48
:1046C000EAFF0050EE5C0150EE580250EE580350E5
:1046D000EE5806E2010EF36E190EF3CFDBFF53D056
:1046E000170EDBCF00F0180EDBCF01F0026A036A71
:1046F000D950060FE96EDACFEAFFEE500026EE50F1
:104700000122EE500222EE5003220334000E031861
:1047100009E6D880000E0054000E0154000E025429
:10472000000E035430E20C0EDBCF08F00D0EDBCF91
:1047300009F0170EDB50085C046E180EDB500958A8
:10474000056E066A076A05AE02D006680768D9508A
:10475000060FE96EDACFEAFF030EEBCFF3FF075047
:10476000F318E8AE02D0F33408D0EE50045CEE50FB
:104770000558EE500658EE50075805E3010EF36E4B
:10478000190EF3CFDBFF0C0EDBCF00F00D0EDBCFED
:1047900001F0026A036AD950060FE96EDACFEAFF28
:1047A000030EEB500318E8AE02D0033408D00050DB
:1047B000EE5C0150EE580250EE580350EE581AE2EB
:1047C000170EDBCF06F0180EDBCF07F00A0EDB501A
:1047D0000624046E0B0EDB500720056E053404E240
:1047E00004500008000E055405E2010EF36E190E88
:1047F000F3CFDBFF45D0060EDBCF00F0070EDBCF9B
:1048000001F0080EDBCF02F0090EDBCF03F0005001
:1048100001100210031006E1010EF36E190EF3CF22
:10482000DBFF2ED0D950060FE96EDACFEAFFD89021
:10483000030EEB50000A08E6000EEE5C000EEE5888
:10484000000EEE58000EEE581BE30C0EDBCF00F00E
:104850000D0EDBCF01F0026A036AD950060FE96E34
:10486000DACFEAFF0050EE5C0150EE580250EE58ED
:104870000350EE5805E2010EF36E190EF3CFDBFF85
:10488000190EDB500DE10E0EDBB408D0010EE66E02
:10489000100EE66E6AEC18F0E552E5526DEF2BF063
:1048A0000E0EDB50060B03E027DC6DEF2BF00E0E37
:1048B000DBB802D06DEF2BF0EC510C0A01E1EED227
:1048C0000B0A4DE00F0A4BE0010A49E0020A47E0FB
:1048D000010A45E00C0A01E0F7D2D9500F0FE96E4A
:1048E000DACFEAFFEE50B31909E1EE50B41906E150
:1048F000EE50B51903E1EE50B61900E12EE0130EAB
:10490000B3C6DBFF140EB4C6DBFF150EB5C6DBFF66
:10491000160EB6C6DBFF0F0EDBCFB3F6100EDBCFE5
:10492000B4F6110EDBCFB5F6120EDBCFB6F6010EE4
:10493000E66E040EE66E6AEC18F0E552E552130ED0
:10494000DBCFB3F6140EDBCFB4F6150EDBCFB5F626
:10495000160EDBCFB6F66DEF2BF0070EEC6FBB51EA
:10496000DC5D006EDD51BC55016E040E00C0DBFF46
:10497000050E01C0DBFF040EDBCF00F0050EDBCF20
:1049800001F00001800E011410E00601D651D85D3F
:10499000006ED951D755016ED950040FE96EDACFA8
:1049A000EAFF0050EE260150ED22040EDBCF00F0AE
:1049B000050EDBCF01F0026A036AB30EE96E060E44
:1049C000EA6EEE500026EE500122EE500222EE502A
:1049D000032200C0DFFF010E01C0DBFF020E02C098
:1049E000DBFF030E03C0DBFF0F0EDBCF04F0100E66
:1049F000DBCF05F0110EDBCF06F0120EDBCF07F098
:104A0000D9CFE9FFDACFEAFF0450EE5C006E055023
:104A1000EE58016E0650EE58026E0750EE58036EC7
:104A20000001800E031409E0E66A100EE66E6AECDF
:104A300018F0E552E5526DEF2BF00601DE51BB5D3B
:104A4000046EBC51DF55056E066A076A05AE02D0DA
:104A5000066807680450B35D006E0550B459016ED6
:104A60000650B559026E0750B659036E00C0DFFFFD
:104A7000010E01C0DBFF020E02C0DBFF030E03C00C
:104A8000DBFFDE51BB5DDF51BC5914E2D651D85D6E
:104A9000006ED951D755016E026A036AD9CFE9FF7A
:104AA000DACFEAFF0050EE5E0150EE5A0250EE5AA5
:104AB0000350EE5A0F0EDBCF04F0100EDBCF05F0E3
:104AC000110EDBCF06F0120EDBCF07F0D9CFE9FFD6
:104AD000DACFEAFFEE50045C006EEE500558016E2E
:104AE000EE500658026EEE500758036E00C0DFFF0E
:104AF000010E01C0DBFF020E02C0DBFF030E03C08C
:104B0000DBFFDECF25F0DECF26F0DECF27F0DDCFD6
:104B100028F0DD52DD522834000E281809E6D8802E
:104B2000000E2554000E2654000E2754000E285463
:104B300001E3A2D0D651D85D006ED951D755016E90
:104B4000026A036AD9CFE9FFDACFEAFFEE50005CD0
:104B5000EE500158EE500258EE50035801E28CD04E
:104B6000D197D199EE91040EDEC6DBFF050EDFC6AC
:104B7000DBFFD9CFE9FFDACFEAFFEE50DE27EE50B8
:104B8000DF23040EDBCF00F0050EDBCF01F0005079
:104B9000BB5D0150BC591BE3DE51BB5DDF51BC590D
:104BA00015E2BB51DE5D006EDF51BC55016E0001A8
:104BB00000500601B327000101500601B423000E86
:104BC000B523B623DEC6BBF6DFC6BCF636D0D6515B
:104BD000D85D026ED951D755036EBB510224006EC9
:104BE000BC510320016E040E00C0DBFF050E01C0A6
:104BF000DBFF040EDBCF00F0050EDBCF01F0DE5152
:104C0000005CDF51015819E2040EDB50DE5D00014B
:104C1000006E050EDB500601DF590001016E0050E9
:104C20000601B327000101500601B423000EB5238D
:104C3000B623DEC6BBF6DFC6BCF6D851DE5DD95161
:104C4000DF590AE3D651D85D006ED951D755016EB0
:104C50000050DE5F0150DF5BD851BB5DD951BC59BC
:104C60000AE3D651D85D006ED951D755016E005078
:104C7000BB5F0150BC5B3ED0BB51DE1902E1BC51B1
:104C8000DF1938E0D1A735D0D1A932D0DE51BB5DD4
:104C9000006EBC51DF55016E026A036A01AE02D09C
:104CA000026803680050B35F0150B45B0250B55B0B
:104CB0000350B65BDE51BB5DDF51BC5914E2D651E7
:104CC000D85D006ED951D755016E026A036A01AEF4
:104CD00002D0026803680050B35F0150B45B025019
:104CE000B55B0350B65BDEC6BBF6DFC6BCF6EE8531
:104CF000D189D187DC51DE1902E1DD51DF192EE1C6
:104D0000EEB715D06FEC90F024C0E4F625C0E5F6C0
:104D100026C0E6F627C0E7F6740E0601E427350E36
:104D2000E523060EE623000EE723ED9917D0D950B0
:104D30000F0FE96EDACFEAFFB351EE1809E1B45173
:104D4000EE1806E1B551EE1803E1B651EE1800E198
:104D500005E1D151010B02E0ED99EE97D9500F0F0B
:104D6000E96EDACFEAFFEE50B35D026EEE50B45951
:104D7000036EEE50B559046EEE50B659056EFD0E39
:104D8000DBCFE9FFFE0EDBCFEAFF0E0EE926000EB9
:104D9000EA220250EE5C006E0350EE58016E1A0ECD
:104DA00000C0DBFF1B0E01C0DBFFC151C21109E1D6
:104DB000D9501A0FE96EDACFEAFFEE50ED1001E09C
:104DC000EE831A0EDBCFC1F61B0EDBCFC2F6080E48
:104DD000EC5D2CE1D9500F0FE96EDACFEAFFB35149
:104DE000EE1809E1B451EE1806E1B551EE1803E1F1
:104DF000B651EE1800E119E1D151010B16E06FEC4C
:104E000090F024C0E4F625C0E5F626C0E6F627C0FB
:104E1000E7F6BA0E0601E4271A0EE523030EE62391
:104E2000000EE723ED89090EEC6F37D0090EEC5D1B
:104E30001BE10E0EDBB017D00F0EDBCFB3F6100E5A
:104E4000DBCFB4F6110EDBCFB5F6120EDBCFB6F624
:104E5000E66A140EE66E6AEC18F0E552E5527CEC58
:104E600020F06DEF2BF019D00A0EEC5D16E1D95051
:104E70000F0FE96EDACFEAFFB351EE1809E1B45132
:104E8000EE1806E1B551EE1803E1B651EE1800E157
:104E900002E17CEC20F06DEF2BF017D0D9500F0F12
:104EA000E96EDACFEAFFB351EE1809E1B451EE181A
:104EB00006E1B551EE1803E1B651EE1800E102E14A
:104EC0007CEC20F06DEF2BF000D00E0EDBAA02D0B0
:104ED0006DEF2BF00B0EEC5D02E16DEF2BF00A0E87
:104EE000EC5D02E16DEF2BF00C0EEC5D02E16DEF7D
:104EF0002BF0D950FB0FE96EFF0EDA20EA6EEE5070
:104F0000ED1001E131D30A0EDBCF00F00B0EDBCF49
:104F100001F0013404E200500008000E015401E2E7
:104F200050D1FD0EDBCFE9FFFE0EDBCFEAFF0C0E0A
:104F3000E926000EEA22EF50F00BE842E842E84290
:104F4000E842040DF350026E036A0A0EDB50025C65
:104F5000006E0B0EDB500358016E00C0E6FF01C06F
:104F6000E6FFE9EC81F0E552E5520A0EDBCF00F0F6
:104F70000B0EDBCF01F0D950FB0FE96EFF0EDA20EC
:104F8000EA6E0050EE260150ED22FB0EDBCF00F062
:104F9000FC0EDBCF01F00C0EDBCF02F00D0EDBCFF1
:104FA00003F00050025C015003580CE20C0EDBCF02
:104FB00026F00D0EDBCF27F0FB0E26C0DBFFFC0E2C
:104FC00027C0DBFFFB0EDBCF00F0FC0EDBCF01F0D8
:104FD000000100500601B727000101500601B82367
:104FE000000EB923BA23FB0EDB50E0250001006E52
:104FF000FC0EDB500601E1210001016E06010050AC
:10500000DA5D0150DB595CE2E051DA5D006EDB51A4
:10501000E155016E010E0026000E0122040E00C0B3
:10502000DBFF050E01C0DBFF040EDBCFE6FF050E44
:10503000DBCFE6FFE66AE668E668F1C6E6FFE0C6B3
:10504000E6FFE1C6E6FF17EC2DF0006E080EE15E0C
:105050000050FB0EDBCF02F0FC0EDBCF03F0040EA2
:10506000DB50025C006E050EDB500358016E00C081
:10507000E6FF01C0E6FFE66AE668E668F1C6E6FF1D
:10508000D8C6E6FFD9C6E6FF17EC2DF0046E080E71
:10509000E15E0450FB0EDBCF02F0FC0EDBCF03F031
:1050A000040EDB50025C006E050EDB500358016EEF
:1050B0000601D8510024E06FD9510120E16F20D0C2
:1050C000FB0EDBCFE6FFFC0EDBCFE6FFE66AE66811
:1050D000E668F1C6E6FFE0C6E6FFE1C6E6FF17ECCC
:1050E0002DF0006E080EE15E0050FB0EDBCF26F0C7
:1050F000FC0EDBCF27F026500601E0272750E123E6
:10510000CF1D01E1D01D5CE0FB0EDBCF26F0FC0ED5
:10511000DBCF27F02650CF5F2750D05BC351CF2580
:10512000006EC451D021016E040E00C0DBFF050EDD
:1051300001C0DBFF040EDBCF00F0050EDBCF01F07A
:105140000001800E011404E00601CF69D06938D057
:105150000601D03504E2CF510008000ED05530E3EF
:10516000040EDBCF00F0050EDBCF01F00001005094
:105170000601B727000101500601B823000EB9232C
:10518000BA23040EDBCF26F0050EDBCF27F0265026
:10519000E0272750E123E051DA5DE151DB590EE2CF
:1051A000D851DA5D006EDB51D955016E010E002633
:1051B000000E01220050E05F0150E15BCF69D06931
:1051C000D3D10A0EDBCF00F00B0EDBCF01F00134A0
:1051D00004E200500008000E015401E3C5D10A0E9C
:1051E000DBCF02F00B0EDBCF03F0FB0EDB50022413
:1051F000006EFC0EDB500320016E0C0EDBCF04F0C2
:105200000D0EDBCF05F00050045C0150055814E290
:105210000C0EDBCF02F00D0EDBCF03F00A0EDB50DD
:10522000025C006E0B0EDB500358016EFB0E00C0DB
:10523000DBFFFC0E01C0DBFFFD0EDBCFE9FFFE0E46
:10524000DBCFEAFF0C0EE926000EEA22EF50F00B4E
:10525000E842E842E842E842040DF350E66EE66AAE
:10526000E9EC81F0E552E5520A0EDB500601E0253B
:105270000001026E0B0EDB500601E1210001036EFE
:10528000FB0EDB500224006EFC0EDB500320016E8F
:1052900006010050DA5D0150DB5901E395D0E05181
:1052A000DA5D026EDB51E155036E010E0226000E3F
:1052B00003220A0EDB50025C006E0B0EDB5003581B
:1052C000016E040E00C0DBFF050E01C0DBFF040E03
:1052D000DBCF00F0050EDBCF01F00001800E0114E2
:1052E00041E1040EDBCFE6FF050EDBCFE6FFE66A09
:1052F000E668E668F1C6E6FF0A0EDB500601E02527
:105300000001006E0B0EDB500601E1210001016E71
:1053100000C0E6FF01C0E6FF8ADB026E080EE15E18
:105320000250FB0EDBCF02F0FC0EDBCF03F0040ECD
:10533000DB50025C006E050EDB500358016E00C0AE
:10534000E6FF01C0E6FFE66AE668E668F1C6E6FF4A
:10535000D8C6E6FFD9C6E6FF6ADB046E080EE15E3A
:10536000045031D0FB0EDBCFE6FFFC0EDBCFE6FFB7
:10537000E66AE668E668F1C6E6FF0A0EDB5006015B
:10538000E0250001026E0B0EDB500601E121000159
:10539000036E0601D851DA5D046EDB51D955056EF6
:1053A000010E0426000E05220450025C006E05501A
:1053B0000358016E00C0E6FF01C0E6FF38DB066E51
:1053C000080EE15E06501FD0FB0EDBCFE6FFFC0EA1
:1053D000DBCFE6FFE66AE668E668F1C6E6FF0A0E9E
:1053E000DB50E0250001006E0B0EDB500601E121D1
:1053F0000001016E00C0E6FF01C0E6FF18DB026E8F
:10540000080EE15E02500601CF1D01E1D01D0DE145
:105410000A0EDBCFCFF60B0EDBCFD0F6FB0EDBCFC9
:10542000C3F6FC0EDBCFC4F69FD00A0EDBCF00F034
:105430000B0EDBCF01F0CF51005CD05101584CE294
:10544000FB0EDBCF02F0FC0EDBCF03F00A0EDB50CD
:105450000224006E0B0EDB500320016ECF51C325DA
:10546000046ED051C421056E0050045C01500558F3
:1054700013E3FB0EDBCF08F0FC0EDBCF09F00A0EC6
:10548000DB500824066E0B0EDB500920076ECF514F
:10549000065CD051075807E2FB0EDBCFC3F6FC0ECB
:1054A000DBCFC4F612D0CF51C325006ED051C4213A
:1054B000016E0A0EDB500001005C0601C36F0B0E8B
:1054C000DB50000101580601C46F0A0EDBCFCFF696
:1054D0000B0EDBCFD0F648D0FB0EDBCF02F0FC0E7C
:1054E000DBCF03F00A0EDB500224006E0B0EDB5004
:1054F0000320016ECF51C325046ED051C421056E27
:105500000050045C015005582FE20A0EDBCF00F07A
:105510000B0EDBCF01F0CF51C325026ED051C42159
:10552000036E0050025C015003581EE3FB0EDBCFFC
:1055300006F0FC0EDBCF07F00A0EDB500624046EEB
:105540000B0EDB500720056ECF51045C026ED0516C
:105550000558036EC351025C006EC4510358016EBE
:105560000050C3270150C423D950170FE96EDACF7A
:10557000EAFFEE50ED1023E0070EEC5D04E0E0C61C
:10558000E2F6E1C6E3F6EDAF0BD0010EE66E100ECB
:10559000E66E6AEC18F0E552E552BFEC00F00FD071
:1055A000ED8FEDBD0CD0ED8D7AEC90F024C0EAF6D5
:1055B00025C0EBF60F0E0601EA27000EEB230E0EB8
:1055C000DBA08BD0B7C600F0B8C601F0B9C602F0B8
:1055D000BAC603F0002A000E012202220322170E8F
:1055E000DBCF04F0180EDBCF05F0066A076AD9504E
:1055F000130FE96EDACFEAFFEE500426EE500522D3
:10560000EE500622EE5007220050041809E1015026
:10561000051806E10250061803E10350071800E1DF
:105620005CE10601B72B000EB823B923BA23EC5175
:10563000090A40E0010A1EE00F0A0EE0010A01E03B
:1056400043D00C0EEC6F010EE66E110EE66E6AECA6
:1056500018F0E552E55241D00B0EEC6F7AEC90F069
:1056600024C0EAF625C0EBF61F0E0601EA27000E5D
:10567000EB232BD0D9500F0FE96EDACFEAFFB351ED
:10568000EE1809E1B451EE1806E1B551EE1803E148
:10569000B651EE1800E10BE1E66A100EE66E6AEC18
:1056A00018F0E552E5527CEC20F017D002D00A0E3B
:1056B000EC6F0BD0E66A100EE66E6AEC18F0E5525D
:1056C000E5527CEC20F009D000D0010EE66E100E01
:1056D000E66E6AEC18F0E552E5521C0EE15C02E25F
:1056E000E16AE552E16EE552E7CFD9FF1200D9CF6A
:1056F000E6FFE1CFD9FF060EE126FE0EDB50006E7D
:10570000016A020E005C000E015802E3000E83D114
:10571000FE0EDBCFE6FF70EC00F0E552D950FC0F37
:10572000E96EFF0EDA20EA6EEE50ED1007E1010E91
:10573000F36EFC0EF3CFDBFFFD0EDB6A0601D651E4
:10574000DA5D006EDB51D755016E0006000E015A7E
:1057500000C0DEFF01C0DDFFFA0EDBCF02F0FB0E62
:10576000DBCF03F0FC0EDB500224006EFD0EDB509D
:105770000320016EDECF04F0DDCF05F00050045CA5
:105780000150055802E2000E46D1BFEC00F0F90EC0
:10579000DB50030B03E1F90EDB80DB82FA0EDBCF7B
:1057A00026F0FB0EDBCF27F0040E26C0DBFF050E34
:1057B00027C0DBFFFA0EDBCF02F0FB0EDBCF03F0DE
:1057C000FC0EDB500224006EFD0EDB500320016E48
:1057D000D9CFE9FFDACFEAFF0050EE5E0150ED5A73
:1057E000F90EDBA220D0DBA011D0DECF00F0DDCFA0
:1057F00001F0D89001320032D950040FE96EDACFAF
:10580000EAFF0050EE260150ED220DD0DECF00F071
:10581000DDCF01F0D950040FE96EDACFEAFF005076
:10582000EE260150ED22040EDB500601D6250001C4
:10583000006E050EDB500601D7210001016E010E3E
:105840000026000E012200C0DEFF01C0DDFF020EB7
:10585000E0C6DBFF030EE1C6DBFF0601CF1D01E161
:10586000D01D2DE0CF51C325006ED051C421016E53
:10587000D950020FE96EDACFEAFF0050EE26015050
:10588000ED22020EDBCF00F0030EDBCF01F0005063
:10589000DA5D0150DB5913E2D851DA5D006EDB515D
:1058A000D955016E010E0026000E0122D950020FBB
:1058B000E96EDACFEAFF0050EE5E0150ED5A020EBB
:1058C000DBCF00F0030EDBCF01F00050E25D0150B2
:1058D000E35918E2DECF00F0DDCF01F00050E25DC9
:1058E0000150E3590EE2F90EDBA403D0000E93D071
:1058F00008D0DECFE2F6DDCFE3F6DECFE0F6DDCF97
:10590000E1F62BD0020EDBCF00F0030EDBCF01F06F
:10591000E251005CE351015818E2DECF00F0DDCF28
:1059200001F00050D85D0150D9590EE2F90EDBA408
:1059300003D0000E70D008D0DECFE2F6DDCFE3F664
:10594000DECFE0F6DDCFE1F608D0DECFE2F6DDCF48
:10595000E3F6DECFE0F6DDCFE1F6020EDBCF00F0BE
:10596000030EDBCF01F00601E251005CE351015868
:1059700035E2F90EDB50040B31E0020EDBCF26F0EE
:10598000030EDBCF27F0D851265C006ED951275883
:10599000016E00C0E6FF01C0E6FFF1C6E6FFD8C613
:1059A000E6FFD9C6E6FFF1C6E6FFDECFE6FFDDCFB4
:1059B000E6FF3DD8026E080EE15E02500601E2519C
:1059C000E05DE351E1590AE2DE50D85D006EDD5042
:1059D000D959016E0050E05F0150E15BDECFD8F68F
:1059E000DDCFD9F6D6C6BBF6D7C6BCF6D6C6DEF630
:1059F000D7C6DFF6D6C6DCF6D7C6DDF6070EEC5DF9
:105A000008E1010EE66E100EE66E6AEC18F0E55243
:105A1000E552010E00D0006E060EE15C02E2E16A82
:105A2000E552E16E0050E552E7CFD9FF1200D9CF21
:105A3000E6FFE1CFD9FFF90EDB504CE0010A01E0AF
:105A400097D0FC0EDB501CE0010A01E042D0F70EBB
:105A5000DBCFE6FFF80EDBCFE6FFFA0EDBCFE6FF8B
:105A6000FB0EDBCFE6FFFD0EDBCFE6FFFE0EDBCF4E
:105A7000E6FF43EC8EF0006E060EE15E005029D08A
:105A8000D950FD0FE96EFF0EDA20EA6EFF0EEE1818
:105A900002E1FF0EED180AE0FD0EDBCFE6FFFE0E81
:105AA000DBCFE6FFDCEC65F0E552E552F70EDBCF2D
:105AB000E6FFF80EDBCFE6FFFA0EDBCFE6FFFB0ECC
